{
	"data": {
		"bytecode": {
			"linkReferences": {},
			"object": "608060405260016008556000600b553480156200001b57600080fd5b5060405162002541380380620025418339810160408190526200003e916200028d565b60006200004a62000289565b600080546001600160a01b0319166001600160a01b0383169081178255604051929350917f8be0079c531659141344cd1fd0a4f28419497f9722a3daafe3b4186f6b6457e0908290a35060018080556002805460ff199081168317610100600160a81b0319166101006001600160a01b039b8c160217909155600380546001600160a01b0319908116998b169990991790819055600480548a16988b1698909817909755600580548916968a16969096179095556006939093556007918255600c8190556040805160e08101825295881686526103e8602087018181529187019283526000606088018181526080890182815260a08a0183815260c08b01848152600980549a8b01815590945299517f6e1540171b6c0c960b71a7020d9f60077f6af931a8bbf590da0223dacf75c7af989097029788018054909b1696909b169590951790985590517f6e1540171b6c0c960b71a7020d9f60077f6af931a8bbf590da0223dacf75c7b085015590517f6e1540171b6c0c960b71a7020d9f60077f6af931a8bbf590da0223dacf75c7b184015590517f6e1540171b6c0c960b71a7020d9f60077f6af931a8bbf590da0223dacf75c7b283015594517f6e1540171b6c0c960b71a7020d9f60077f6af931a8bbf590da0223dacf75c7b382015591517f6e1540171b6c0c960b71a7020d9f60077f6af931a8bbf590da0223dacf75c7b483015591517f6e1540171b6c0c960b71a7020d9f60077f6af931a8bbf590da0223dacf75c7b59091018054909216901515179055600b556200032c565b3390565b600080600080600080600060e0888a031215620002a8578283fd5b8751620002b58162000313565b6020890151909750620002c88162000313565b6040890151909650620002db8162000313565b6060890151909550620002ee8162000313565b809450506080880151925060a0880151915060c0880151905092959891949750929550565b6001600160a01b03811681146200032957600080fd5b50565b612205806200033c6000396000f3fe608060405234801561001057600080fd5b50600436106101fb5760003560e01c80635ffe61461161011a578063aab825cb116100ad578063e4c75c271161007c578063e4c75c27146103e4578063e9b0e7d4146103f7578063eb282250146103ff578063f28fadb814610407578063f2fde38b1461041a576101fb565b8063aab825cb146103ae578063cd36cd8f146103c1578063d49e77cd146103c9578063e2bbb158146103d1576101fb565b80638d88a90e116100e95780638d88a90e1461035e5780638da5cb5b146103715780638dbb1e3a1461037957806393f1a40b1461038c576101fb565b80635ffe614614610333578063630b5ba114610346578063715018a61461034e5780638aa2855014610356576101fb565b80633e6f97e81161019257806348cd4cb11161016157806348cd4cb1146102fd57806351eb05a6146103055780635312ea8e14610318578063557de0b61461032b576101fb565b80633e6f97e8146102af57806341441d3b146102c45780634299ecaf146102d7578063441a3e70146102ea576101fb565b80631526fe27116101ce5780631526fe271461025b578063173819d21461028157806317caf6f1146102945780632de4b7921461029c576101fb565b8063081e3eda146102005780631058d2811461021e57806311bc12a71461023357806312d43a5114610246575b600080fd5b61020861042d565b60405161021591906120b4565b60405180910390f35b61023161022c366004611c73565b610433565b005b610231610241366004611d2c565b61060d565b61024e610618565b6040516102159190611da7565b61026e610269366004611c73565b610627565b6040516102159796959493929190611e03565b61020861028f366004611ca3565b610683565b6102086107f1565b6102086102aa366004611d2c565b6107f7565b6102b761080a565b6040516102159190611df8565b6102316102d2366004611c73565b610813565b6102316102e5366004611cd2565b6109be565b6102316102f8366004611d2c565b610b15565b610208610d15565b610231610313366004611c73565b610d1b565b610231610326366004611c73565b610f92565b610208611045565b610231610341366004611c73565b61104b565b61023161108f565b6102316110ba565b610208611143565b61023161036c366004611c3b565b611149565b61024e611195565b610208610387366004611d2c565b6111a4565b61039f61039a366004611ca3565b6111b6565b604051610215939291906120cb565b6102316103bc366004611d2c565b6111e2565b61024e6112c3565b61024e6112d2565b6102316103df366004611d2c565b6112e1565b6102086103f2366004611ca3565b6114cb565b61024e61163e565b610208611652565b610231610415366004611d4d565b611658565b610231610428366004611c3b565b6117c0565b60095490565b6000600960008154811061045757634e487b7160e01b600052603260045260246000fd5b600091825260208083203384527f13da86008ba1c6922daee3e07db95305ef49ebced9f5467a0b8613fcc6b343e390915260409092208054600790920290920192508311156104c15760405162461bcd60e51b81526004016104b89061203e565b60405180910390fd5b6104cb6000610d1b565b600061050582600101546104ff64e8d4a510006104f98760030154876000015461188090919063ffffffff16565b9061188c565b90611898565b905080156105175761051733826118a4565b83156105415781546105299085611898565b82558254610541906001600160a01b031633866118d5565b6003830154825461055c9164e8d4a51000916104f991611880565b600183015560048054604051632770a7eb60e21b81526001600160a01b0390911691639dc29fac91610592913391899101611ddf565b600060405180830381600087803b1580156105ac57600080fd5b505af11580156105c0573d6000803e3d6000fd5b505050506000336001600160a01b03167ff279e6a1f5e320cca91135676d9cb6e44ca8a08c0b88342bcdb1144f6511b568866040516105ff91906120b4565b60405180910390a350505050565b600691909155600755565b6004546001600160a01b031681565b6009818154811061063757600080fd5b600091825260209091206007909102018054600182015460028301546003840154600485015460058601546006909601546001600160a01b039095169650929491939092919060ff1687565b600080600984815481106106a757634e487b7160e01b600052603260045260246000fd5b60009182526020808320878452600a825260408085206001600160a01b03808a16875293528085206005600790950290920193840154845491516370a0823160e01b815294965091949193919216906370a082319061070a903090600401611da7565b60206040518083038186803b15801561072257600080fd5b505afa158015610736573d6000803e3d6000fd5b505050506040513d601f19601f8201168201806040525081019061075a9190611c8b565b905083600201544311801561076e57508015155b156107c15760006107838560020154436111a4565b905060006107aa86600401546107a46006548561188090919063ffffffff16565b90611880565b60058701549091506107bc9082611930565b935050505b600283015483546107e691906104ff906107df90633b9aca0061188c565b8590611880565b979650505050505050565b600b5481565b60006108038284611898565b9392505050565b60025460ff1681565b6000600960008154811061083757634e487b7160e01b600052603260045260246000fd5b600091825260208083203384527f13da86008ba1c6922daee3e07db95305ef49ebced9f5467a0b8613fcc6b343e39091526040832060079092020192509061087e90610d1b565b8054156108c75760006108b382600101546104ff64e8d4a510006104f98760030154876000015461188090919063ffffffff16565b905080156108c5576108c533826118a4565b505b82156108f35781546108e4906001600160a01b031633308661193c565b80546108f09084611930565b81555b6003820154815461090e9164e8d4a51000916104f991611880565b6001820155600480546040516340c10f1960e01b81526001600160a01b03909116916340c10f1991610944913391889101611ddf565b600060405180830381600087803b15801561095e57600080fd5b505af1158015610972573d6000803e3d6000fd5b505050506000336001600160a01b03167f90890809c654f11d6e72a28fa60149770a0d11ec6c92319d6ceb2bb0a4ea1a15856040516109b191906120b4565b60405180910390a3505050565b6109c6611963565b6001600160a01b03166109d7611195565b6001600160a01b0316146109fd5760405162461bcd60e51b81526004016104b890611fd2565b8215610a0b57610a0b61108f565b6000600c544311610a1e57600c54610a20565b435b600b54909150610a309087611930565b600b8190555060096040518060e00160405280876001600160a01b031681526020018881526020018381526020016000815260200185610a71576000610a73565b845b81526000602080830182905287151560409384015284546001808201875595835291819020845160079093020180546001600160a01b0319166001600160a01b03909316929092178255830151938101939093558101516002830155606081015160038301556080810151600483015560a0810151600583015560c001516006909101805460ff1916911515919091179055610b0d611967565b505050505050565b81610b325760405162461bcd60e51b81526004016104b890611e73565b600060098381548110610b5557634e487b7160e01b600052603260045260246000fd5b60009182526020808320868452600a825260408085203386529092529220805460079092029092019250831115610b9e5760405162461bcd60e51b81526004016104b89061203e565b610ba784610d1b565b6000610bd582600101546104ff64e8d4a510006104f98760030154876000015461188090919063ffffffff16565b600684015490915060ff168015610bee575060025460ff165b15610c3257610c2d33610c2884600201546104ff610c1d633b9aca00886000015461188c90919063ffffffff16565b600589015490611880565b611a70565b610c42565b8015610c4257610c4233826118a4565b8315610c6c578154610c549085611898565b82558254610c6c906001600160a01b031633866118d5565b600683015460ff168015610c82575060025460ff165b15610cab5760058301548254610ca191906107a490633b9aca0061188c565b6002830155610ccc565b60038301548254610cc69164e8d4a51000916104f991611880565b60018301555b84336001600160a01b03167ff279e6a1f5e320cca91135676d9cb6e44ca8a08c0b88342bcdb1144f6511b56886604051610d0691906120b4565b60405180910390a35050505050565b600c5481565b600060098281548110610d3e57634e487b7160e01b600052603260045260246000fd5b9060005260206000209060070201905080600201544311610d5f5750610f8f565b80546040516370a0823160e01b81526000916001600160a01b0316906370a0823190610d8f903090600401611da7565b60206040518083038186803b158015610da757600080fd5b505afa158015610dbb573d6000803e3d6000fd5b505050506040513d601f19601f82011682018060405250810190610ddf9190611c8b565b905080610df3575043600290910155610f8f565b6000610e038360020154436111a4565b90506000610e2484600401546107a46006548561188090919063ffffffff16565b90506000610e4b600b546104f987600101546107a46007548861188090919063ffffffff16565b6003546005549192506001600160a01b03908116916340c10f199116610e7284600c61188c565b6040518363ffffffff1660e01b8152600401610e8f929190611ddf565b600060405180830381600087803b158015610ea957600080fd5b505af1158015610ebd573d6000803e3d6000fd5b5050600354600480546040516340c10f1960e01b81526001600160a01b0393841695506340c10f199450610ef79390911691869101611ddf565b600060405180830381600087803b158015610f1157600080fd5b505af1158015610f25573d6000803e3d6000fd5b505060025460ff169150508015610f405750600685015460ff165b15610f5a576005850154610f549083611930565b60058601555b610f7b610f70856104f98464e8d4a51000611880565b600387015490611930565b600386015550504360029093019290925550505b50565b600060098281548110610fb557634e487b7160e01b600052603260045260246000fd5b60009182526020808320858452600a82526040808520338087529352909320805460079093029093018054909450610ffa926001600160a01b039190911691906118d5565b8054604051849133917fbb757047c2b5f3974fe26b7c10f732e7bce710b0952a71082702781e62ae05959161102e916120b4565b60405180910390a360008082556001909101555050565b60065481565b611053611963565b6001600160a01b0316611064611195565b6001600160a01b03161461108a5760405162461bcd60e51b81526004016104b890611fd2565b600855565b60095460005b818110156110b6576110a681610d1b565b6110af8161217b565b9050611095565b5050565b6110c2611963565b6001600160a01b03166110d3611195565b6001600160a01b0316146110f95760405162461bcd60e51b81526004016104b890611fd2565b600080546040516001600160a01b03909116907f8be0079c531659141344cd1fd0a4f28419497f9722a3daafe3b4186f6b6457e0908390a3600080546001600160a01b0319169055565b60085481565b6005546001600160a01b031633146111735760405162461bcd60e51b81526004016104b890611faf565b600580546001600160a01b0319166001600160a01b0392909216919091179055565b6000546001600160a01b031690565b60006108036008546107a485856107f7565b600a60209081526000928352604080842090915290825290208054600182015460029092015490919083565b6111ea611963565b6001600160a01b03166111fb611195565b6001600160a01b0316146112215760405162461bcd60e51b81526004016104b890611fd2565b6103e882106112425760405162461bcd60e51b81526004016104b890611f27565b6103e881106112635760405162461bcd60e51b81526004016104b890611f27565b600354604051630352151760e51b81526001600160a01b0390911690636a42a2e09061129590859085906004016120bd565b600060405180830381600087803b1580156112af57600080fd5b505af1158015610b0d573d6000803e3d6000fd5b6003546001600160a01b031681565b6005546001600160a01b031681565b816112fe5760405162461bcd60e51b81526004016104b890611ef0565b60006009838154811061132157634e487b7160e01b600052603260045260246000fd5b60009182526020808320868452600a8252604080852033865290925292206007909102909101915061135284610d1b565b80541561140557600061138782600101546104ff64e8d4a510006104f98760030154876000015461188090919063ffffffff16565b600684015490915060ff1680156113a0575060025460ff165b156113f3576113cf33610c2884600201546104ff610c1d633b9aca00886000015461188c90919063ffffffff16565b600583015482546113e991906107a490633b9aca0061188c565b6002830155611403565b80156114035761140333826118a4565b505b8215611431578154611422906001600160a01b031633308661193c565b805461142e9084611930565b81555b600682015460ff168015611447575060025460ff165b15611470576005820154815461146691906107a490633b9aca0061188c565b6002820155611491565b6003820154815461148b9164e8d4a51000916104f991611880565b60018201555b83336001600160a01b03167f90890809c654f11d6e72a28fa60149770a0d11ec6c92319d6ceb2bb0a4ea1a15856040516105ff91906120b4565b600080600984815481106114ef57634e487b7160e01b600052603260045260246000fd5b60009182526020808320878452600a825260408085206001600160a01b03808a16875293528085206003600790950290920193840154845491516370a0823160e01b815294965091949193919216906370a0823190611552903090600401611da7565b60206040518083038186803b15801561156a57600080fd5b505afa15801561157e573d6000803e3d6000fd5b505050506040513d601f19601f820116820180604052508101906115a29190611c8b565b90508360020154431180156115b657508015155b156116165760006115cb8560020154436111a4565b905060006115f2600b546104f988600101546107a46007548761188090919063ffffffff16565b905061161161160a846104f98464e8d4a51000611880565b8590611930565b935050505b6107e683600101546104ff64e8d4a510006104f986886000015461188090919063ffffffff16565b60025461010090046001600160a01b031681565b60075481565b611660611963565b6001600160a01b0316611671611195565b6001600160a01b0316146116975760405162461bcd60e51b81526004016104b890611fd2565b81156116a5576116a561108f565b6000600985815481106116c857634e487b7160e01b600052603260045260246000fd5b906000526020600020906007020160010154905083600986815481106116fe57634e487b7160e01b600052603260045260246000fd5b9060005260206000209060070201600101819055506009858154811061173457634e487b7160e01b600052603260045260246000fd5b600091825260209091206006600790920201015460ff161561178857816009868154811061177257634e487b7160e01b600052603260045260246000fd5b9060005260206000209060070201600401819055505b8381146117b9576117ae846117a883600b5461189890919063ffffffff16565b90611930565b600b556117b9611967565b5050505050565b6117c8611963565b6001600160a01b03166117d9611195565b6001600160a01b0316146117ff5760405162461bcd60e51b81526004016104b890611fd2565b6001600160a01b0381166118255760405162461bcd60e51b81526004016104b890611eaa565b600080546040516001600160a01b03808516939216917f8be0079c531659141344cd1fd0a4f28419497f9722a3daafe3b4186f6b6457e091a3600080546001600160a01b0319166001600160a01b0392909216919091179055565b60006108038284612119565b600061080382846120f9565b60006108038284612138565b60048054604051630d76a92360e11b81526001600160a01b0390911691631aed524691611295918691869101611ddf565b61192b8363a9059cbb60e01b84846040516024016118f4929190611ddf565b60408051601f198184030181529190526020810180516001600160e01b03166001600160e01b031990931692909217909152611aa1565b505050565b600061080382846120e1565b61195d846323b872dd60e01b8585856040516024016118f493929190611dbb565b50505050565b3390565b600954600060015b828110156119ce576119bc6009828154811061199b57634e487b7160e01b600052603260045260246000fd5b9060005260206000209060070201600101548361193090919063ffffffff16565b91506119c78161217b565b905061196f565b5080156110b6576119e081600461188c565b9050611a2e816117a86009600081548110611a0b57634e487b7160e01b600052603260045260246000fd5b906000526020600020906007020160010154600b5461189890919063ffffffff16565b600b81905550806009600081548110611a5757634e487b7160e01b600052603260045260246000fd5b9060005260206000209060070201600101819055505050565b600480546040516321c12d1760e21b81526001600160a01b0390911691638704b45c91611295918691869101611ddf565b6000611af6826040518060400160405280602081526020017f5361666545524332303a206c6f772d6c6576656c2063616c6c206661696c6564815250856001600160a01b0316611b309092919063ffffffff16565b80519091501561192b5780806020019051810190611b149190611c57565b61192b5760405162461bcd60e51b81526004016104b89061206a565b6060611b3f8484600085611b47565b949350505050565b606082471015611b695760405162461bcd60e51b81526004016104b890611f69565b611b7285611bfc565b611b8e5760405162461bcd60e51b81526004016104b890612007565b600080866001600160a01b03168587604051611baa9190611d8b565b60006040518083038185875af1925050503d8060008114611be7576040519150601f19603f3d011682016040523d82523d6000602084013e611bec565b606091505b50915091506107e6828286611c02565b3b151590565b60608315611c11575081610803565b825115611c215782518084602001fd5b8160405162461bcd60e51b81526004016104b89190611e40565b600060208284031215611c4c578081fd5b8135610803816121ac565b600060208284031215611c68578081fd5b8151610803816121c1565b600060208284031215611c84578081fd5b5035919050565b600060208284031215611c9c578081fd5b5051919050565b60008060408385031215611cb5578081fd5b823591506020830135611cc7816121ac565b809150509250929050565b600080600080600060a08688031215611ce9578081fd5b853594506020860135611cfb816121ac565b93506040860135611d0b816121c1565b92506060860135611d1b816121c1565b949793965091946080013592915050565b60008060408385031215611d3e578182fd5b50508035926020909101359150565b60008060008060808587031215611d62578384fd5b84359350602085013592506040850135611d7b816121c1565b9396929550929360600135925050565b60008251611d9d81846020870161214f565b9190910192915050565b6001600160a01b0391909116815260200190565b6001600160a01b039384168152919092166020820152604081019190915260600190565b6001600160a01b03929092168252602082015260400190565b901515815260200190565b6001600160a01b03979097168752602087019590955260408601939093526060850191909152608084015260a0830152151560c082015260e00190565b6000602082528251806020840152611e5f81604085016020870161214f565b601f01601f19169190910160400192915050565b6020808252601e908201527f776974686472617720617374657269736b20627920756e7374616b696e670000604082015260600190565b60208082526026908201527f4f776e61626c653a206e6577206f776e657220697320746865207a65726f206160408201526564647265737360d01b606082015260800190565b6020808252601b908201527f6465706f73697420617374657269736b206279207374616b696e670000000000604082015260600190565b60208082526022908201527f4275726e696e672072617465206d757374206265206c6f77207468616e203130604082015261030360f41b606082015260800190565b60208082526026908201527f416464726573733a20696e73756666696369656e742062616c616e636520666f6040820152651c8818d85b1b60d21b606082015260800190565b6020808252600990820152686465763a207775743f60b81b604082015260600190565b6020808252818101527f4f776e61626c653a2063616c6c6572206973206e6f7420746865206f776e6572604082015260600190565b6020808252601d908201527f416464726573733a2063616c6c20746f206e6f6e2d636f6e7472616374000000604082015260600190565b6020808252601290820152711dda5d1a191c985dce881b9bdd0819dbdbd960721b604082015260600190565b6020808252602a908201527f5361666545524332303a204552433230206f7065726174696f6e20646964206e6040820152691bdd081cdd58d8d9595960b21b606082015260800190565b90815260200190565b918252602082015260400190565b9283526020830191909152604082015260600190565b600082198211156120f4576120f4612196565b500190565b60008261211457634e487b7160e01b81526012600452602481fd5b500490565b600081600019048311821515161561213357612133612196565b500290565b60008282101561214a5761214a612196565b500390565b60005b8381101561216a578181015183820152602001612152565b8381111561195d5750506000910152565b600060001982141561218f5761218f612196565b5060010190565b634e487b7160e01b600052601160045260246000fd5b6001600160a01b0381168114610f8f57600080fd5b8015158114610f8f57600080fdfea26469706673582212202d905c0e2753e8b5783a74f41c92d88d6cb8562086ec6efd95e53c5c1d2460b464736f6c63430008010033",
			"opcodes": "PUSH1 0x80 PUSH1 0x40 MSTORE PUSH1 0x1 PUSH1 0x8 SSTORE PUSH1 0x0 PUSH1 0xB SSTORE CALLVALUE DUP1 ISZERO PUSH3 0x1B JUMPI PUSH1 0x0 DUP1 REVERT JUMPDEST POP PUSH1 0x40 MLOAD PUSH3 0x2541 CODESIZE SUB DUP1 PUSH3 0x2541 DUP4 CODECOPY DUP2 ADD PUSH1 0x40 DUP2 SWAP1 MSTORE PUSH3 0x3E SWAP2 PUSH3 0x28D JUMP JUMPDEST PUSH1 0x0 PUSH3 0x4A PUSH3 0x289 JUMP JUMPDEST PUSH1 0x0 DUP1 SLOAD PUSH1 0x1 PUSH1 0x1 PUSH1 0xA0 SHL SUB NOT AND PUSH1 0x1 PUSH1 0x1 PUSH1 0xA0 SHL SUB DUP4 AND SWAP1 DUP2 OR DUP3 SSTORE PUSH1 0x40 MLOAD SWAP3 SWAP4 POP SWAP2 PUSH32 0x8BE0079C531659141344CD1FD0A4F28419497F9722A3DAAFE3B4186F6B6457E0 SWAP1 DUP3 SWAP1 LOG3 POP PUSH1 0x1 DUP1 DUP1 SSTORE PUSH1 0x2 DUP1 SLOAD PUSH1 0xFF NOT SWAP1 DUP2 AND DUP4 OR PUSH2 0x100 PUSH1 0x1 PUSH1 0xA8 SHL SUB NOT AND PUSH2 0x100 PUSH1 0x1 PUSH1 0x1 PUSH1 0xA0 SHL SUB SWAP12 DUP13 AND MUL OR SWAP1 SWAP2 SSTORE PUSH1 0x3 DUP1 SLOAD PUSH1 0x1 PUSH1 0x1 PUSH1 0xA0 SHL SUB NOT SWAP1 DUP2 AND SWAP10 DUP12 AND SWAP10 SWAP1 SWAP10 OR SWAP1 DUP2 SWAP1 SSTORE PUSH1 0x4 DUP1 SLOAD DUP11 AND SWAP9 DUP12 AND SWAP9 SWAP1 SWAP9 OR SWAP1 SWAP8 SSTORE PUSH1 0x5 DUP1 SLOAD DUP10 AND SWAP7 DUP11 AND SWAP7 SWAP1 SWAP7 OR SWAP1 SWAP6 SSTORE PUSH1 0x6 SWAP4 SWAP1 SWAP4 SSTORE PUSH1 0x7 SWAP2 DUP3 SSTORE PUSH1 0xC DUP2 SWAP1 SSTORE PUSH1 0x40 DUP1 MLOAD PUSH1 0xE0 DUP2 ADD DUP3 MSTORE SWAP6 DUP9 AND DUP7 MSTORE PUSH2 0x3E8 PUSH1 0x20 DUP8 ADD DUP2 DUP2 MSTORE SWAP2 DUP8 ADD SWAP3 DUP4 MSTORE PUSH1 0x0 PUSH1 0x60 DUP9 ADD DUP2 DUP2 MSTORE PUSH1 0x80 DUP10 ADD DUP3 DUP2 MSTORE PUSH1 0xA0 DUP11 ADD DUP4 DUP2 MSTORE PUSH1 0xC0 DUP12 ADD DUP5 DUP2 MSTORE PUSH1 0x9 DUP1 SLOAD SWAP11 DUP12 ADD DUP2 SSTORE SWAP1 SWAP5 MSTORE SWAP10 MLOAD PUSH32 0x6E1540171B6C0C960B71A7020D9F60077F6AF931A8BBF590DA0223DACF75C7AF SWAP9 SWAP1 SWAP8 MUL SWAP8 DUP9 ADD DUP1 SLOAD SWAP1 SWAP12 AND SWAP7 SWAP1 SWAP12 AND SWAP6 SWAP1 SWAP6 OR SWAP1 SWAP9 SSTORE SWAP1 MLOAD PUSH32 0x6E1540171B6C0C960B71A7020D9F60077F6AF931A8BBF590DA0223DACF75C7B0 DUP6 ADD SSTORE SWAP1 MLOAD PUSH32 0x6E1540171B6C0C960B71A7020D9F60077F6AF931A8BBF590DA0223DACF75C7B1 DUP5 ADD SSTORE SWAP1 MLOAD PUSH32 0x6E1540171B6C0C960B71A7020D9F60077F6AF931A8BBF590DA0223DACF75C7B2 DUP4 ADD SSTORE SWAP5 MLOAD PUSH32 0x6E1540171B6C0C960B71A7020D9F60077F6AF931A8BBF590DA0223DACF75C7B3 DUP3 ADD SSTORE SWAP2 MLOAD PUSH32 0x6E1540171B6C0C960B71A7020D9F60077F6AF931A8BBF590DA0223DACF75C7B4 DUP4 ADD SSTORE SWAP2 MLOAD PUSH32 0x6E1540171B6C0C960B71A7020D9F60077F6AF931A8BBF590DA0223DACF75C7B5 SWAP1 SWAP2 ADD DUP1 SLOAD SWAP1 SWAP3 AND SWAP1 ISZERO ISZERO OR SWAP1 SSTORE PUSH1 0xB SSTORE PUSH3 0x32C JUMP JUMPDEST CALLER SWAP1 JUMP JUMPDEST PUSH1 0x0 DUP1 PUSH1 0x0 DUP1 PUSH1 0x0 DUP1 PUSH1 0x0 PUSH1 0xE0 DUP9 DUP11 SUB SLT ISZERO PUSH3 0x2A8 JUMPI DUP3 DUP4 REVERT JUMPDEST DUP8 MLOAD PUSH3 0x2B5 DUP2 PUSH3 0x313 JUMP JUMPDEST PUSH1 0x20 DUP10 ADD MLOAD SWAP1 SWAP8 POP PUSH3 0x2C8 DUP2 PUSH3 0x313 JUMP JUMPDEST PUSH1 0x40 DUP10 ADD MLOAD SWAP1 SWAP7 POP PUSH3 0x2DB DUP2 PUSH3 0x313 JUMP JUMPDEST PUSH1 0x60 DUP10 ADD MLOAD SWAP1 SWAP6 POP PUSH3 0x2EE DUP2 PUSH3 0x313 JUMP JUMPDEST DUP1 SWAP5 POP POP PUSH1 0x80 DUP9 ADD MLOAD SWAP3 POP PUSH1 0xA0 DUP9 ADD MLOAD SWAP2 POP PUSH1 0xC0 DUP9 ADD MLOAD SWAP1 POP SWAP3 SWAP6 SWAP9 SWAP2 SWAP5 SWAP8 POP SWAP3 SWAP6 POP JUMP JUMPDEST PUSH1 0x1 PUSH1 0x1 PUSH1 0xA0 SHL SUB DUP2 AND DUP2 EQ PUSH3 0x329 JUMPI PUSH1 0x0 DUP1 REVERT JUMPDEST POP JUMP JUMPDEST PUSH2 0x2205 DUP1 PUSH3 0x33C PUSH1 0x0 CODECOPY PUSH1 0x0 RETURN INVALID PUSH1 0x80 PUSH1 0x40 MSTORE CALLVALUE DUP1 ISZERO PUSH2 0x10 JUMPI PUSH1 0x0 DUP1 REVERT JUMPDEST POP PUSH1 0x4 CALLDATASIZE LT PUSH2 0x1FB JUMPI PUSH1 0x0 CALLDATALOAD PUSH1 0xE0 SHR DUP1 PUSH4 0x5FFE6146 GT PUSH2 0x11A JUMPI DUP1 PUSH4 0xAAB825CB GT PUSH2 0xAD JUMPI DUP1 PUSH4 0xE4C75C27 GT PUSH2 0x7C JUMPI DUP1 PUSH4 0xE4C75C27 EQ PUSH2 0x3E4 JUMPI DUP1 PUSH4 0xE9B0E7D4 EQ PUSH2 0x3F7 JUMPI DUP1 PUSH4 0xEB282250 EQ PUSH2 0x3FF JUMPI DUP1 PUSH4 0xF28FADB8 EQ PUSH2 0x407 JUMPI DUP1 PUSH4 0xF2FDE38B EQ PUSH2 0x41A JUMPI PUSH2 0x1FB JUMP JUMPDEST DUP1 PUSH4 0xAAB825CB EQ PUSH2 0x3AE JUMPI DUP1 PUSH4 0xCD36CD8F EQ PUSH2 0x3C1 JUMPI DUP1 PUSH4 0xD49E77CD EQ PUSH2 0x3C9 JUMPI DUP1 PUSH4 0xE2BBB158 EQ PUSH2 0x3D1 JUMPI PUSH2 0x1FB JUMP JUMPDEST DUP1 PUSH4 0x8D88A90E GT PUSH2 0xE9 JUMPI DUP1 PUSH4 0x8D88A90E EQ PUSH2 0x35E JUMPI DUP1 PUSH4 0x8DA5CB5B EQ PUSH2 0x371 JUMPI DUP1 PUSH4 0x8DBB1E3A EQ PUSH2 0x379 JUMPI DUP1 PUSH4 0x93F1A40B EQ PUSH2 0x38C JUMPI PUSH2 0x1FB JUMP JUMPDEST DUP1 PUSH4 0x5FFE6146 EQ PUSH2 0x333 JUMPI DUP1 PUSH4 0x630B5BA1 EQ PUSH2 0x346 JUMPI DUP1 PUSH4 0x715018A6 EQ PUSH2 0x34E JUMPI DUP1 PUSH4 0x8AA28550 EQ PUSH2 0x356 JUMPI PUSH2 0x1FB JUMP JUMPDEST DUP1 PUSH4 0x3E6F97E8 GT PUSH2 0x192 JUMPI DUP1 PUSH4 0x48CD4CB1 GT PUSH2 0x161 JUMPI DUP1 PUSH4 0x48CD4CB1 EQ PUSH2 0x2FD JUMPI DUP1 PUSH4 0x51EB05A6 EQ PUSH2 0x305 JUMPI DUP1 PUSH4 0x5312EA8E EQ PUSH2 0x318 JUMPI DUP1 PUSH4 0x557DE0B6 EQ PUSH2 0x32B JUMPI PUSH2 0x1FB JUMP JUMPDEST DUP1 PUSH4 0x3E6F97E8 EQ PUSH2 0x2AF JUMPI DUP1 PUSH4 0x41441D3B EQ PUSH2 0x2C4 JUMPI DUP1 PUSH4 0x4299ECAF EQ PUSH2 0x2D7 JUMPI DUP1 PUSH4 0x441A3E70 EQ PUSH2 0x2EA JUMPI PUSH2 0x1FB JUMP JUMPDEST DUP1 PUSH4 0x1526FE27 GT PUSH2 0x1CE JUMPI DUP1 PUSH4 0x1526FE27 EQ PUSH2 0x25B JUMPI DUP1 PUSH4 0x173819D2 EQ PUSH2 0x281 JUMPI DUP1 PUSH4 0x17CAF6F1 EQ PUSH2 0x294 JUMPI DUP1 PUSH4 0x2DE4B792 EQ PUSH2 0x29C JUMPI PUSH2 0x1FB JUMP JUMPDEST DUP1 PUSH4 0x81E3EDA EQ PUSH2 0x200 JUMPI DUP1 PUSH4 0x1058D281 EQ PUSH2 0x21E JUMPI DUP1 PUSH4 0x11BC12A7 EQ PUSH2 0x233 JUMPI DUP1 PUSH4 0x12D43A51 EQ PUSH2 0x246 JUMPI JUMPDEST PUSH1 0x0 DUP1 REVERT JUMPDEST PUSH2 0x208 PUSH2 0x42D JUMP JUMPDEST PUSH1 0x40 MLOAD PUSH2 0x215 SWAP2 SWAP1 PUSH2 0x20B4 JUMP JUMPDEST PUSH1 0x40 MLOAD DUP1 SWAP2 SUB SWAP1 RETURN JUMPDEST PUSH2 0x231 PUSH2 0x22C CALLDATASIZE PUSH1 0x4 PUSH2 0x1C73 JUMP JUMPDEST PUSH2 0x433 JUMP JUMPDEST STOP JUMPDEST PUSH2 0x231 PUSH2 0x241 CALLDATASIZE PUSH1 0x4 PUSH2 0x1D2C JUMP JUMPDEST PUSH2 0x60D JUMP JUMPDEST PUSH2 0x24E PUSH2 0x618 JUMP JUMPDEST PUSH1 0x40 MLOAD PUSH2 0x215 SWAP2 SWAP1 PUSH2 0x1DA7 JUMP JUMPDEST PUSH2 0x26E PUSH2 0x269 CALLDATASIZE PUSH1 0x4 PUSH2 0x1C73 JUMP JUMPDEST PUSH2 0x627 JUMP JUMPDEST PUSH1 0x40 MLOAD PUSH2 0x215 SWAP8 SWAP7 SWAP6 SWAP5 SWAP4 SWAP3 SWAP2 SWAP1 PUSH2 0x1E03 JUMP JUMPDEST PUSH2 0x208 PUSH2 0x28F CALLDATASIZE PUSH1 0x4 PUSH2 0x1CA3 JUMP JUMPDEST PUSH2 0x683 JUMP JUMPDEST PUSH2 0x208 PUSH2 0x7F1 JUMP JUMPDEST PUSH2 0x208 PUSH2 0x2AA CALLDATASIZE PUSH1 0x4 PUSH2 0x1D2C JUMP JUMPDEST PUSH2 0x7F7 JUMP JUMPDEST PUSH2 0x2B7 PUSH2 0x80A JUMP JUMPDEST PUSH1 0x40 MLOAD PUSH2 0x215 SWAP2 SWAP1 PUSH2 0x1DF8 JUMP JUMPDEST PUSH2 0x231 PUSH2 0x2D2 CALLDATASIZE PUSH1 0x4 PUSH2 0x1C73 JUMP JUMPDEST PUSH2 0x813 JUMP JUMPDEST PUSH2 0x231 PUSH2 0x2E5 CALLDATASIZE PUSH1 0x4 PUSH2 0x1CD2 JUMP JUMPDEST PUSH2 0x9BE JUMP JUMPDEST PUSH2 0x231 PUSH2 0x2F8 CALLDATASIZE PUSH1 0x4 PUSH2 0x1D2C JUMP JUMPDEST PUSH2 0xB15 JUMP JUMPDEST PUSH2 0x208 PUSH2 0xD15 JUMP JUMPDEST PUSH2 0x231 PUSH2 0x313 CALLDATASIZE PUSH1 0x4 PUSH2 0x1C73 JUMP JUMPDEST PUSH2 0xD1B JUMP JUMPDEST PUSH2 0x231 PUSH2 0x326 CALLDATASIZE PUSH1 0x4 PUSH2 0x1C73 JUMP JUMPDEST PUSH2 0xF92 JUMP JUMPDEST PUSH2 0x208 PUSH2 0x1045 JUMP JUMPDEST PUSH2 0x231 PUSH2 0x341 CALLDATASIZE PUSH1 0x4 PUSH2 0x1C73 JUMP JUMPDEST PUSH2 0x104B JUMP JUMPDEST PUSH2 0x231 PUSH2 0x108F JUMP JUMPDEST PUSH2 0x231 PUSH2 0x10BA JUMP JUMPDEST PUSH2 0x208 PUSH2 0x1143 JUMP JUMPDEST PUSH2 0x231 PUSH2 0x36C CALLDATASIZE PUSH1 0x4 PUSH2 0x1C3B JUMP JUMPDEST PUSH2 0x1149 JUMP JUMPDEST PUSH2 0x24E PUSH2 0x1195 JUMP JUMPDEST PUSH2 0x208 PUSH2 0x387 CALLDATASIZE PUSH1 0x4 PUSH2 0x1D2C JUMP JUMPDEST PUSH2 0x11A4 JUMP JUMPDEST PUSH2 0x39F PUSH2 0x39A CALLDATASIZE PUSH1 0x4 PUSH2 0x1CA3 JUMP JUMPDEST PUSH2 0x11B6 JUMP JUMPDEST PUSH1 0x40 MLOAD PUSH2 0x215 SWAP4 SWAP3 SWAP2 SWAP1 PUSH2 0x20CB JUMP JUMPDEST PUSH2 0x231 PUSH2 0x3BC CALLDATASIZE PUSH1 0x4 PUSH2 0x1D2C JUMP JUMPDEST PUSH2 0x11E2 JUMP JUMPDEST PUSH2 0x24E PUSH2 0x12C3 JUMP JUMPDEST PUSH2 0x24E PUSH2 0x12D2 JUMP JUMPDEST PUSH2 0x231 PUSH2 0x3DF CALLDATASIZE PUSH1 0x4 PUSH2 0x1D2C JUMP JUMPDEST PUSH2 0x12E1 JUMP JUMPDEST PUSH2 0x208 PUSH2 0x3F2 CALLDATASIZE PUSH1 0x4 PUSH2 0x1CA3 JUMP JUMPDEST PUSH2 0x14CB JUMP JUMPDEST PUSH2 0x24E PUSH2 0x163E JUMP JUMPDEST PUSH2 0x208 PUSH2 0x1652 JUMP JUMPDEST PUSH2 0x231 PUSH2 0x415 CALLDATASIZE PUSH1 0x4 PUSH2 0x1D4D JUMP JUMPDEST PUSH2 0x1658 JUMP JUMPDEST PUSH2 0x231 PUSH2 0x428 CALLDATASIZE PUSH1 0x4 PUSH2 0x1C3B JUMP JUMPDEST PUSH2 0x17C0 JUMP JUMPDEST PUSH1 0x9 SLOAD SWAP1 JUMP JUMPDEST PUSH1 0x0 PUSH1 0x9 PUSH1 0x0 DUP2 SLOAD DUP2 LT PUSH2 0x457 JUMPI PUSH4 0x4E487B71 PUSH1 0xE0 SHL PUSH1 0x0 MSTORE PUSH1 0x32 PUSH1 0x4 MSTORE PUSH1 0x24 PUSH1 0x0 REVERT JUMPDEST PUSH1 0x0 SWAP2 DUP3 MSTORE PUSH1 0x20 DUP1 DUP4 KECCAK256 CALLER DUP5 MSTORE PUSH32 0x13DA86008BA1C6922DAEE3E07DB95305EF49EBCED9F5467A0B8613FCC6B343E3 SWAP1 SWAP2 MSTORE PUSH1 0x40 SWAP1 SWAP3 KECCAK256 DUP1 SLOAD PUSH1 0x7 SWAP1 SWAP3 MUL SWAP1 SWAP3 ADD SWAP3 POP DUP4 GT ISZERO PUSH2 0x4C1 JUMPI PUSH1 0x40 MLOAD PUSH3 0x461BCD PUSH1 0xE5 SHL DUP2 MSTORE PUSH1 0x4 ADD PUSH2 0x4B8 SWAP1 PUSH2 0x203E JUMP JUMPDEST PUSH1 0x40 MLOAD DUP1 SWAP2 SUB SWAP1 REVERT JUMPDEST PUSH2 0x4CB PUSH1 0x0 PUSH2 0xD1B JUMP JUMPDEST PUSH1 0x0 PUSH2 0x505 DUP3 PUSH1 0x1 ADD SLOAD PUSH2 0x4FF PUSH5 0xE8D4A51000 PUSH2 0x4F9 DUP8 PUSH1 0x3 ADD SLOAD DUP8 PUSH1 0x0 ADD SLOAD PUSH2 0x1880 SWAP1 SWAP2 SWAP1 PUSH4 0xFFFFFFFF AND JUMP JUMPDEST SWAP1 PUSH2 0x188C JUMP JUMPDEST SWAP1 PUSH2 0x1898 JUMP JUMPDEST SWAP1 POP DUP1 ISZERO PUSH2 0x517 JUMPI PUSH2 0x517 CALLER DUP3 PUSH2 0x18A4 JUMP JUMPDEST DUP4 ISZERO PUSH2 0x541 JUMPI DUP2 SLOAD PUSH2 0x529 SWAP1 DUP6 PUSH2 0x1898 JUMP JUMPDEST DUP3 SSTORE DUP3 SLOAD PUSH2 0x541 SWAP1 PUSH1 0x1 PUSH1 0x1 PUSH1 0xA0 SHL SUB AND CALLER DUP7 PUSH2 0x18D5 JUMP JUMPDEST PUSH1 0x3 DUP4 ADD SLOAD DUP3 SLOAD PUSH2 0x55C SWAP2 PUSH5 0xE8D4A51000 SWAP2 PUSH2 0x4F9 SWAP2 PUSH2 0x1880 JUMP JUMPDEST PUSH1 0x1 DUP4 ADD SSTORE PUSH1 0x4 DUP1 SLOAD PUSH1 0x40 MLOAD PUSH4 0x2770A7EB PUSH1 0xE2 SHL DUP2 MSTORE PUSH1 0x1 PUSH1 0x1 PUSH1 0xA0 SHL SUB SWAP1 SWAP2 AND SWAP2 PUSH4 0x9DC29FAC SWAP2 PUSH2 0x592 SWAP2 CALLER SWAP2 DUP10 SWAP2 ADD PUSH2 0x1DDF JUMP JUMPDEST PUSH1 0x0 PUSH1 0x40 MLOAD DUP1 DUP4 SUB DUP2 PUSH1 0x0 DUP8 DUP1 EXTCODESIZE ISZERO DUP1 ISZERO PUSH2 0x5AC JUMPI PUSH1 0x0 DUP1 REVERT JUMPDEST POP GAS CALL ISZERO DUP1 ISZERO PUSH2 0x5C0 JUMPI RETURNDATASIZE PUSH1 0x0 DUP1 RETURNDATACOPY RETURNDATASIZE PUSH1 0x0 REVERT JUMPDEST POP POP POP POP PUSH1 0x0 CALLER PUSH1 0x1 PUSH1 0x1 PUSH1 0xA0 SHL SUB AND PUSH32 0xF279E6A1F5E320CCA91135676D9CB6E44CA8A08C0B88342BCDB1144F6511B568 DUP7 PUSH1 0x40 MLOAD PUSH2 0x5FF SWAP2 SWAP1 PUSH2 0x20B4 JUMP JUMPDEST PUSH1 0x40 MLOAD DUP1 SWAP2 SUB SWAP1 LOG3 POP POP POP POP JUMP JUMPDEST PUSH1 0x6 SWAP2 SWAP1 SWAP2 SSTORE PUSH1 0x7 SSTORE JUMP JUMPDEST PUSH1 0x4 SLOAD PUSH1 0x1 PUSH1 0x1 PUSH1 0xA0 SHL SUB AND DUP2 JUMP JUMPDEST PUSH1 0x9 DUP2 DUP2 SLOAD DUP2 LT PUSH2 0x637 JUMPI PUSH1 0x0 DUP1 REVERT JUMPDEST PUSH1 0x0 SWAP2 DUP3 MSTORE PUSH1 0x20 SWAP1 SWAP2 KECCAK256 PUSH1 0x7 SWAP1 SWAP2 MUL ADD DUP1 SLOAD PUSH1 0x1 DUP3 ADD SLOAD PUSH1 0x2 DUP4 ADD SLOAD PUSH1 0x3 DUP5 ADD SLOAD PUSH1 0x4 DUP6 ADD SLOAD PUSH1 0x5 DUP7 ADD SLOAD PUSH1 0x6 SWAP1 SWAP7 ADD SLOAD PUSH1 0x1 PUSH1 0x1 PUSH1 0xA0 SHL SUB SWAP1 SWAP6 AND SWAP7 POP SWAP3 SWAP5 SWAP2 SWAP4 SWAP1 SWAP3 SWAP2 SWAP1 PUSH1 0xFF AND DUP8 JUMP JUMPDEST PUSH1 0x0 DUP1 PUSH1 0x9 DUP5 DUP2 SLOAD DUP2 LT PUSH2 0x6A7 JUMPI PUSH4 0x4E487B71 PUSH1 0xE0 SHL PUSH1 0x0 MSTORE PUSH1 0x32 PUSH1 0x4 MSTORE PUSH1 0x24 PUSH1 0x0 REVERT JUMPDEST PUSH1 0x0 SWAP2 DUP3 MSTORE PUSH1 0x20 DUP1 DUP4 KECCAK256 DUP8 DUP5 MSTORE PUSH1 0xA DUP3 MSTORE PUSH1 0x40 DUP1 DUP6 KECCAK256 PUSH1 0x1 PUSH1 0x1 PUSH1 0xA0 SHL SUB DUP1 DUP11 AND DUP8 MSTORE SWAP4 MSTORE DUP1 DUP6 KECCAK256 PUSH1 0x5 PUSH1 0x7 SWAP1 SWAP6 MUL SWAP1 SWAP3 ADD SWAP4 DUP5 ADD SLOAD DUP5 SLOAD SWAP2 MLOAD PUSH4 0x70A08231 PUSH1 0xE0 SHL DUP2 MSTORE SWAP5 SWAP7 POP SWAP2 SWAP5 SWAP2 SWAP4 SWAP2 SWAP3 AND SWAP1 PUSH4 0x70A08231 SWAP1 PUSH2 0x70A SWAP1 ADDRESS SWAP1 PUSH1 0x4 ADD PUSH2 0x1DA7 JUMP JUMPDEST PUSH1 0x20 PUSH1 0x40 MLOAD DUP1 DUP4 SUB DUP2 DUP7 DUP1 EXTCODESIZE ISZERO DUP1 ISZERO PUSH2 0x722 JUMPI PUSH1 0x0 DUP1 REVERT JUMPDEST POP GAS STATICCALL ISZERO DUP1 ISZERO PUSH2 0x736 JUMPI RETURNDATASIZE PUSH1 0x0 DUP1 RETURNDATACOPY RETURNDATASIZE PUSH1 0x0 REVERT JUMPDEST POP POP POP POP PUSH1 0x40 MLOAD RETURNDATASIZE PUSH1 0x1F NOT PUSH1 0x1F DUP3 ADD AND DUP3 ADD DUP1 PUSH1 0x40 MSTORE POP DUP2 ADD SWAP1 PUSH2 0x75A SWAP2 SWAP1 PUSH2 0x1C8B JUMP JUMPDEST SWAP1 POP DUP4 PUSH1 0x2 ADD SLOAD NUMBER GT DUP1 ISZERO PUSH2 0x76E JUMPI POP DUP1 ISZERO ISZERO JUMPDEST ISZERO PUSH2 0x7C1 JUMPI PUSH1 0x0 PUSH2 0x783 DUP6 PUSH1 0x2 ADD SLOAD NUMBER PUSH2 0x11A4 JUMP JUMPDEST SWAP1 POP PUSH1 0x0 PUSH2 0x7AA DUP7 PUSH1 0x4 ADD SLOAD PUSH2 0x7A4 PUSH1 0x6 SLOAD DUP6 PUSH2 0x1880 SWAP1 SWAP2 SWAP1 PUSH4 0xFFFFFFFF AND JUMP JUMPDEST SWAP1 PUSH2 0x1880 JUMP JUMPDEST PUSH1 0x5 DUP8 ADD SLOAD SWAP1 SWAP2 POP PUSH2 0x7BC SWAP1 DUP3 PUSH2 0x1930 JUMP JUMPDEST SWAP4 POP POP POP JUMPDEST PUSH1 0x2 DUP4 ADD SLOAD DUP4 SLOAD PUSH2 0x7E6 SWAP2 SWAP1 PUSH2 0x4FF SWAP1 PUSH2 0x7DF SWAP1 PUSH4 0x3B9ACA00 PUSH2 0x188C JUMP JUMPDEST DUP6 SWAP1 PUSH2 0x1880 JUMP JUMPDEST SWAP8 SWAP7 POP POP POP POP POP POP POP JUMP JUMPDEST PUSH1 0xB SLOAD DUP2 JUMP JUMPDEST PUSH1 0x0 PUSH2 0x803 DUP3 DUP5 PUSH2 0x1898 JUMP JUMPDEST SWAP4 SWAP3 POP POP POP JUMP JUMPDEST PUSH1 0x2 SLOAD PUSH1 0xFF AND DUP2 JUMP JUMPDEST PUSH1 0x0 PUSH1 0x9 PUSH1 0x0 DUP2 SLOAD DUP2 LT PUSH2 0x837 JUMPI PUSH4 0x4E487B71 PUSH1 0xE0 SHL PUSH1 0x0 MSTORE PUSH1 0x32 PUSH1 0x4 MSTORE PUSH1 0x24 PUSH1 0x0 REVERT JUMPDEST PUSH1 0x0 SWAP2 DUP3 MSTORE PUSH1 0x20 DUP1 DUP4 KECCAK256 CALLER DUP5 MSTORE PUSH32 0x13DA86008BA1C6922DAEE3E07DB95305EF49EBCED9F5467A0B8613FCC6B343E3 SWAP1 SWAP2 MSTORE PUSH1 0x40 DUP4 KECCAK256 PUSH1 0x7 SWAP1 SWAP3 MUL ADD SWAP3 POP SWAP1 PUSH2 0x87E SWAP1 PUSH2 0xD1B JUMP JUMPDEST DUP1 SLOAD ISZERO PUSH2 0x8C7 JUMPI PUSH1 0x0 PUSH2 0x8B3 DUP3 PUSH1 0x1 ADD SLOAD PUSH2 0x4FF PUSH5 0xE8D4A51000 PUSH2 0x4F9 DUP8 PUSH1 0x3 ADD SLOAD DUP8 PUSH1 0x0 ADD SLOAD PUSH2 0x1880 SWAP1 SWAP2 SWAP1 PUSH4 0xFFFFFFFF AND JUMP JUMPDEST SWAP1 POP DUP1 ISZERO PUSH2 0x8C5 JUMPI PUSH2 0x8C5 CALLER DUP3 PUSH2 0x18A4 JUMP JUMPDEST POP JUMPDEST DUP3 ISZERO PUSH2 0x8F3 JUMPI DUP2 SLOAD PUSH2 0x8E4 SWAP1 PUSH1 0x1 PUSH1 0x1 PUSH1 0xA0 SHL SUB AND CALLER ADDRESS DUP7 PUSH2 0x193C JUMP JUMPDEST DUP1 SLOAD PUSH2 0x8F0 SWAP1 DUP5 PUSH2 0x1930 JUMP JUMPDEST DUP2 SSTORE JUMPDEST PUSH1 0x3 DUP3 ADD SLOAD DUP2 SLOAD PUSH2 0x90E SWAP2 PUSH5 0xE8D4A51000 SWAP2 PUSH2 0x4F9 SWAP2 PUSH2 0x1880 JUMP JUMPDEST PUSH1 0x1 DUP3 ADD SSTORE PUSH1 0x4 DUP1 SLOAD PUSH1 0x40 MLOAD PUSH4 0x40C10F19 PUSH1 0xE0 SHL DUP2 MSTORE PUSH1 0x1 PUSH1 0x1 PUSH1 0xA0 SHL SUB SWAP1 SWAP2 AND SWAP2 PUSH4 0x40C10F19 SWAP2 PUSH2 0x944 SWAP2 CALLER SWAP2 DUP9 SWAP2 ADD PUSH2 0x1DDF JUMP JUMPDEST PUSH1 0x0 PUSH1 0x40 MLOAD DUP1 DUP4 SUB DUP2 PUSH1 0x0 DUP8 DUP1 EXTCODESIZE ISZERO DUP1 ISZERO PUSH2 0x95E JUMPI PUSH1 0x0 DUP1 REVERT JUMPDEST POP GAS CALL ISZERO DUP1 ISZERO PUSH2 0x972 JUMPI RETURNDATASIZE PUSH1 0x0 DUP1 RETURNDATACOPY RETURNDATASIZE PUSH1 0x0 REVERT JUMPDEST POP POP POP POP PUSH1 0x0 CALLER PUSH1 0x1 PUSH1 0x1 PUSH1 0xA0 SHL SUB AND PUSH32 0x90890809C654F11D6E72A28FA60149770A0D11EC6C92319D6CEB2BB0A4EA1A15 DUP6 PUSH1 0x40 MLOAD PUSH2 0x9B1 SWAP2 SWAP1 PUSH2 0x20B4 JUMP JUMPDEST PUSH1 0x40 MLOAD DUP1 SWAP2 SUB SWAP1 LOG3 POP POP POP JUMP JUMPDEST PUSH2 0x9C6 PUSH2 0x1963 JUMP JUMPDEST PUSH1 0x1 PUSH1 0x1 PUSH1 0xA0 SHL SUB AND PUSH2 0x9D7 PUSH2 0x1195 JUMP JUMPDEST PUSH1 0x1 PUSH1 0x1 PUSH1 0xA0 SHL SUB AND EQ PUSH2 0x9FD JUMPI PUSH1 0x40 MLOAD PUSH3 0x461BCD PUSH1 0xE5 SHL DUP2 MSTORE PUSH1 0x4 ADD PUSH2 0x4B8 SWAP1 PUSH2 0x1FD2 JUMP JUMPDEST DUP3 ISZERO PUSH2 0xA0B JUMPI PUSH2 0xA0B PUSH2 0x108F JUMP JUMPDEST PUSH1 0x0 PUSH1 0xC SLOAD NUMBER GT PUSH2 0xA1E JUMPI PUSH1 0xC SLOAD PUSH2 0xA20 JUMP JUMPDEST NUMBER JUMPDEST PUSH1 0xB SLOAD SWAP1 SWAP2 POP PUSH2 0xA30 SWAP1 DUP8 PUSH2 0x1930 JUMP JUMPDEST PUSH1 0xB DUP2 SWAP1 SSTORE POP PUSH1 0x9 PUSH1 0x40 MLOAD DUP1 PUSH1 0xE0 ADD PUSH1 0x40 MSTORE DUP1 DUP8 PUSH1 0x1 PUSH1 0x1 PUSH1 0xA0 SHL SUB AND DUP2 MSTORE PUSH1 0x20 ADD DUP9 DUP2 MSTORE PUSH1 0x20 ADD DUP4 DUP2 MSTORE PUSH1 0x20 ADD PUSH1 0x0 DUP2 MSTORE PUSH1 0x20 ADD DUP6 PUSH2 0xA71 JUMPI PUSH1 0x0 PUSH2 0xA73 JUMP JUMPDEST DUP5 JUMPDEST DUP2 MSTORE PUSH1 0x0 PUSH1 0x20 DUP1 DUP4 ADD DUP3 SWAP1 MSTORE DUP8 ISZERO ISZERO PUSH1 0x40 SWAP4 DUP5 ADD MSTORE DUP5 SLOAD PUSH1 0x1 DUP1 DUP3 ADD DUP8 SSTORE SWAP6 DUP4 MSTORE SWAP2 DUP2 SWAP1 KECCAK256 DUP5 MLOAD PUSH1 0x7 SWAP1 SWAP4 MUL ADD DUP1 SLOAD PUSH1 0x1 PUSH1 0x1 PUSH1 0xA0 SHL SUB NOT AND PUSH1 0x1 PUSH1 0x1 PUSH1 0xA0 SHL SUB SWAP1 SWAP4 AND SWAP3 SWAP1 SWAP3 OR DUP3 SSTORE DUP4 ADD MLOAD SWAP4 DUP2 ADD SWAP4 SWAP1 SWAP4 SSTORE DUP2 ADD MLOAD PUSH1 0x2 DUP4 ADD SSTORE PUSH1 0x60 DUP2 ADD MLOAD PUSH1 0x3 DUP4 ADD SSTORE PUSH1 0x80 DUP2 ADD MLOAD PUSH1 0x4 DUP4 ADD SSTORE PUSH1 0xA0 DUP2 ADD MLOAD PUSH1 0x5 DUP4 ADD SSTORE PUSH1 0xC0 ADD MLOAD PUSH1 0x6 SWAP1 SWAP2 ADD DUP1 SLOAD PUSH1 0xFF NOT AND SWAP2 ISZERO ISZERO SWAP2 SWAP1 SWAP2 OR SWAP1 SSTORE PUSH2 0xB0D PUSH2 0x1967 JUMP JUMPDEST POP POP POP POP POP POP JUMP JUMPDEST DUP2 PUSH2 0xB32 JUMPI PUSH1 0x40 MLOAD PUSH3 0x461BCD PUSH1 0xE5 SHL DUP2 MSTORE PUSH1 0x4 ADD PUSH2 0x4B8 SWAP1 PUSH2 0x1E73 JUMP JUMPDEST PUSH1 0x0 PUSH1 0x9 DUP4 DUP2 SLOAD DUP2 LT PUSH2 0xB55 JUMPI PUSH4 0x4E487B71 PUSH1 0xE0 SHL PUSH1 0x0 MSTORE PUSH1 0x32 PUSH1 0x4 MSTORE PUSH1 0x24 PUSH1 0x0 REVERT JUMPDEST PUSH1 0x0 SWAP2 DUP3 MSTORE PUSH1 0x20 DUP1 DUP4 KECCAK256 DUP7 DUP5 MSTORE PUSH1 0xA DUP3 MSTORE PUSH1 0x40 DUP1 DUP6 KECCAK256 CALLER DUP7 MSTORE SWAP1 SWAP3 MSTORE SWAP3 KECCAK256 DUP1 SLOAD PUSH1 0x7 SWAP1 SWAP3 MUL SWAP1 SWAP3 ADD SWAP3 POP DUP4 GT ISZERO PUSH2 0xB9E JUMPI PUSH1 0x40 MLOAD PUSH3 0x461BCD PUSH1 0xE5 SHL DUP2 MSTORE PUSH1 0x4 ADD PUSH2 0x4B8 SWAP1 PUSH2 0x203E JUMP JUMPDEST PUSH2 0xBA7 DUP5 PUSH2 0xD1B JUMP JUMPDEST PUSH1 0x0 PUSH2 0xBD5 DUP3 PUSH1 0x1 ADD SLOAD PUSH2 0x4FF PUSH5 0xE8D4A51000 PUSH2 0x4F9 DUP8 PUSH1 0x3 ADD SLOAD DUP8 PUSH1 0x0 ADD SLOAD PUSH2 0x1880 SWAP1 SWAP2 SWAP1 PUSH4 0xFFFFFFFF AND JUMP JUMPDEST PUSH1 0x6 DUP5 ADD SLOAD SWAP1 SWAP2 POP PUSH1 0xFF AND DUP1 ISZERO PUSH2 0xBEE JUMPI POP PUSH1 0x2 SLOAD PUSH1 0xFF AND JUMPDEST ISZERO PUSH2 0xC32 JUMPI PUSH2 0xC2D CALLER PUSH2 0xC28 DUP5 PUSH1 0x2 ADD SLOAD PUSH2 0x4FF PUSH2 0xC1D PUSH4 0x3B9ACA00 DUP9 PUSH1 0x0 ADD SLOAD PUSH2 0x188C SWAP1 SWAP2 SWAP1 PUSH4 0xFFFFFFFF AND JUMP JUMPDEST PUSH1 0x5 DUP10 ADD SLOAD SWAP1 PUSH2 0x1880 JUMP JUMPDEST PUSH2 0x1A70 JUMP JUMPDEST PUSH2 0xC42 JUMP JUMPDEST DUP1 ISZERO PUSH2 0xC42 JUMPI PUSH2 0xC42 CALLER DUP3 PUSH2 0x18A4 JUMP JUMPDEST DUP4 ISZERO PUSH2 0xC6C JUMPI DUP2 SLOAD PUSH2 0xC54 SWAP1 DUP6 PUSH2 0x1898 JUMP JUMPDEST DUP3 SSTORE DUP3 SLOAD PUSH2 0xC6C SWAP1 PUSH1 0x1 PUSH1 0x1 PUSH1 0xA0 SHL SUB AND CALLER DUP7 PUSH2 0x18D5 JUMP JUMPDEST PUSH1 0x6 DUP4 ADD SLOAD PUSH1 0xFF AND DUP1 ISZERO PUSH2 0xC82 JUMPI POP PUSH1 0x2 SLOAD PUSH1 0xFF AND JUMPDEST ISZERO PUSH2 0xCAB JUMPI PUSH1 0x5 DUP4 ADD SLOAD DUP3 SLOAD PUSH2 0xCA1 SWAP2 SWAP1 PUSH2 0x7A4 SWAP1 PUSH4 0x3B9ACA00 PUSH2 0x188C JUMP JUMPDEST PUSH1 0x2 DUP4 ADD SSTORE PUSH2 0xCCC JUMP JUMPDEST PUSH1 0x3 DUP4 ADD SLOAD DUP3 SLOAD PUSH2 0xCC6 SWAP2 PUSH5 0xE8D4A51000 SWAP2 PUSH2 0x4F9 SWAP2 PUSH2 0x1880 JUMP JUMPDEST PUSH1 0x1 DUP4 ADD SSTORE JUMPDEST DUP5 CALLER PUSH1 0x1 PUSH1 0x1 PUSH1 0xA0 SHL SUB AND PUSH32 0xF279E6A1F5E320CCA91135676D9CB6E44CA8A08C0B88342BCDB1144F6511B568 DUP7 PUSH1 0x40 MLOAD PUSH2 0xD06 SWAP2 SWAP1 PUSH2 0x20B4 JUMP JUMPDEST PUSH1 0x40 MLOAD DUP1 SWAP2 SUB SWAP1 LOG3 POP POP POP POP POP JUMP JUMPDEST PUSH1 0xC SLOAD DUP2 JUMP JUMPDEST PUSH1 0x0 PUSH1 0x9 DUP3 DUP2 SLOAD DUP2 LT PUSH2 0xD3E JUMPI PUSH4 0x4E487B71 PUSH1 0xE0 SHL PUSH1 0x0 MSTORE PUSH1 0x32 PUSH1 0x4 MSTORE PUSH1 0x24 PUSH1 0x0 REVERT JUMPDEST SWAP1 PUSH1 0x0 MSTORE PUSH1 0x20 PUSH1 0x0 KECCAK256 SWAP1 PUSH1 0x7 MUL ADD SWAP1 POP DUP1 PUSH1 0x2 ADD SLOAD NUMBER GT PUSH2 0xD5F JUMPI POP PUSH2 0xF8F JUMP JUMPDEST DUP1 SLOAD PUSH1 0x40 MLOAD PUSH4 0x70A08231 PUSH1 0xE0 SHL DUP2 MSTORE PUSH1 0x0 SWAP2 PUSH1 0x1 PUSH1 0x1 PUSH1 0xA0 SHL SUB AND SWAP1 PUSH4 0x70A08231 SWAP1 PUSH2 0xD8F SWAP1 ADDRESS SWAP1 PUSH1 0x4 ADD PUSH2 0x1DA7 JUMP JUMPDEST PUSH1 0x20 PUSH1 0x40 MLOAD DUP1 DUP4 SUB DUP2 DUP7 DUP1 EXTCODESIZE ISZERO DUP1 ISZERO PUSH2 0xDA7 JUMPI PUSH1 0x0 DUP1 REVERT JUMPDEST POP GAS STATICCALL ISZERO DUP1 ISZERO PUSH2 0xDBB JUMPI RETURNDATASIZE PUSH1 0x0 DUP1 RETURNDATACOPY RETURNDATASIZE PUSH1 0x0 REVERT JUMPDEST POP POP POP POP PUSH1 0x40 MLOAD RETURNDATASIZE PUSH1 0x1F NOT PUSH1 0x1F DUP3 ADD AND DUP3 ADD DUP1 PUSH1 0x40 MSTORE POP DUP2 ADD SWAP1 PUSH2 0xDDF SWAP2 SWAP1 PUSH2 0x1C8B JUMP JUMPDEST SWAP1 POP DUP1 PUSH2 0xDF3 JUMPI POP NUMBER PUSH1 0x2 SWAP1 SWAP2 ADD SSTORE PUSH2 0xF8F JUMP JUMPDEST PUSH1 0x0 PUSH2 0xE03 DUP4 PUSH1 0x2 ADD SLOAD NUMBER PUSH2 0x11A4 JUMP JUMPDEST SWAP1 POP PUSH1 0x0 PUSH2 0xE24 DUP5 PUSH1 0x4 ADD SLOAD PUSH2 0x7A4 PUSH1 0x6 SLOAD DUP6 PUSH2 0x1880 SWAP1 SWAP2 SWAP1 PUSH4 0xFFFFFFFF AND JUMP JUMPDEST SWAP1 POP PUSH1 0x0 PUSH2 0xE4B PUSH1 0xB SLOAD PUSH2 0x4F9 DUP8 PUSH1 0x1 ADD SLOAD PUSH2 0x7A4 PUSH1 0x7 SLOAD DUP9 PUSH2 0x1880 SWAP1 SWAP2 SWAP1 PUSH4 0xFFFFFFFF AND JUMP JUMPDEST PUSH1 0x3 SLOAD PUSH1 0x5 SLOAD SWAP2 SWAP3 POP PUSH1 0x1 PUSH1 0x1 PUSH1 0xA0 SHL SUB SWAP1 DUP2 AND SWAP2 PUSH4 0x40C10F19 SWAP2 AND PUSH2 0xE72 DUP5 PUSH1 0xC PUSH2 0x188C JUMP JUMPDEST PUSH1 0x40 MLOAD DUP4 PUSH4 0xFFFFFFFF AND PUSH1 0xE0 SHL DUP2 MSTORE PUSH1 0x4 ADD PUSH2 0xE8F SWAP3 SWAP2 SWAP1 PUSH2 0x1DDF JUMP JUMPDEST PUSH1 0x0 PUSH1 0x40 MLOAD DUP1 DUP4 SUB DUP2 PUSH1 0x0 DUP8 DUP1 EXTCODESIZE ISZERO DUP1 ISZERO PUSH2 0xEA9 JUMPI PUSH1 0x0 DUP1 REVERT JUMPDEST POP GAS CALL ISZERO DUP1 ISZERO PUSH2 0xEBD JUMPI RETURNDATASIZE PUSH1 0x0 DUP1 RETURNDATACOPY RETURNDATASIZE PUSH1 0x0 REVERT JUMPDEST POP POP PUSH1 0x3 SLOAD PUSH1 0x4 DUP1 SLOAD PUSH1 0x40 MLOAD PUSH4 0x40C10F19 PUSH1 0xE0 SHL DUP2 MSTORE PUSH1 0x1 PUSH1 0x1 PUSH1 0xA0 SHL SUB SWAP4 DUP5 AND SWAP6 POP PUSH4 0x40C10F19 SWAP5 POP PUSH2 0xEF7 SWAP4 SWAP1 SWAP2 AND SWAP2 DUP7 SWAP2 ADD PUSH2 0x1DDF JUMP JUMPDEST PUSH1 0x0 PUSH1 0x40 MLOAD DUP1 DUP4 SUB DUP2 PUSH1 0x0 DUP8 DUP1 EXTCODESIZE ISZERO DUP1 ISZERO PUSH2 0xF11 JUMPI PUSH1 0x0 DUP1 REVERT JUMPDEST POP GAS CALL ISZERO DUP1 ISZERO PUSH2 0xF25 JUMPI RETURNDATASIZE PUSH1 0x0 DUP1 RETURNDATACOPY RETURNDATASIZE PUSH1 0x0 REVERT JUMPDEST POP POP PUSH1 0x2 SLOAD PUSH1 0xFF AND SWAP2 POP POP DUP1 ISZERO PUSH2 0xF40 JUMPI POP PUSH1 0x6 DUP6 ADD SLOAD PUSH1 0xFF AND JUMPDEST ISZERO PUSH2 0xF5A JUMPI PUSH1 0x5 DUP6 ADD SLOAD PUSH2 0xF54 SWAP1 DUP4 PUSH2 0x1930 JUMP JUMPDEST PUSH1 0x5 DUP7 ADD SSTORE JUMPDEST PUSH2 0xF7B PUSH2 0xF70 DUP6 PUSH2 0x4F9 DUP5 PUSH5 0xE8D4A51000 PUSH2 0x1880 JUMP JUMPDEST PUSH1 0x3 DUP8 ADD SLOAD SWAP1 PUSH2 0x1930 JUMP JUMPDEST PUSH1 0x3 DUP7 ADD SSTORE POP POP NUMBER PUSH1 0x2 SWAP1 SWAP4 ADD SWAP3 SWAP1 SWAP3 SSTORE POP POP JUMPDEST POP JUMP JUMPDEST PUSH1 0x0 PUSH1 0x9 DUP3 DUP2 SLOAD DUP2 LT PUSH2 0xFB5 JUMPI PUSH4 0x4E487B71 PUSH1 0xE0 SHL PUSH1 0x0 MSTORE PUSH1 0x32 PUSH1 0x4 MSTORE PUSH1 0x24 PUSH1 0x0 REVERT JUMPDEST PUSH1 0x0 SWAP2 DUP3 MSTORE PUSH1 0x20 DUP1 DUP4 KECCAK256 DUP6 DUP5 MSTORE PUSH1 0xA DUP3 MSTORE PUSH1 0x40 DUP1 DUP6 KECCAK256 CALLER DUP1 DUP8 MSTORE SWAP4 MSTORE SWAP1 SWAP4 KECCAK256 DUP1 SLOAD PUSH1 0x7 SWAP1 SWAP4 MUL SWAP1 SWAP4 ADD DUP1 SLOAD SWAP1 SWAP5 POP PUSH2 0xFFA SWAP3 PUSH1 0x1 PUSH1 0x1 PUSH1 0xA0 SHL SUB SWAP2 SWAP1 SWAP2 AND SWAP2 SWAP1 PUSH2 0x18D5 JUMP JUMPDEST DUP1 SLOAD PUSH1 0x40 MLOAD DUP5 SWAP2 CALLER SWAP2 PUSH32 0xBB757047C2B5F3974FE26B7C10F732E7BCE710B0952A71082702781E62AE0595 SWAP2 PUSH2 0x102E SWAP2 PUSH2 0x20B4 JUMP JUMPDEST PUSH1 0x40 MLOAD DUP1 SWAP2 SUB SWAP1 LOG3 PUSH1 0x0 DUP1 DUP3 SSTORE PUSH1 0x1 SWAP1 SWAP2 ADD SSTORE POP POP JUMP JUMPDEST PUSH1 0x6 SLOAD DUP2 JUMP JUMPDEST PUSH2 0x1053 PUSH2 0x1963 JUMP JUMPDEST PUSH1 0x1 PUSH1 0x1 PUSH1 0xA0 SHL SUB AND PUSH2 0x1064 PUSH2 0x1195 JUMP JUMPDEST PUSH1 0x1 PUSH1 0x1 PUSH1 0xA0 SHL SUB AND EQ PUSH2 0x108A JUMPI PUSH1 0x40 MLOAD PUSH3 0x461BCD PUSH1 0xE5 SHL DUP2 MSTORE PUSH1 0x4 ADD PUSH2 0x4B8 SWAP1 PUSH2 0x1FD2 JUMP JUMPDEST PUSH1 0x8 SSTORE JUMP JUMPDEST PUSH1 0x9 SLOAD PUSH1 0x0 JUMPDEST DUP2 DUP2 LT ISZERO PUSH2 0x10B6 JUMPI PUSH2 0x10A6 DUP2 PUSH2 0xD1B JUMP JUMPDEST PUSH2 0x10AF DUP2 PUSH2 0x217B JUMP JUMPDEST SWAP1 POP PUSH2 0x1095 JUMP JUMPDEST POP POP JUMP JUMPDEST PUSH2 0x10C2 PUSH2 0x1963 JUMP JUMPDEST PUSH1 0x1 PUSH1 0x1 PUSH1 0xA0 SHL SUB AND PUSH2 0x10D3 PUSH2 0x1195 JUMP JUMPDEST PUSH1 0x1 PUSH1 0x1 PUSH1 0xA0 SHL SUB AND EQ PUSH2 0x10F9 JUMPI PUSH1 0x40 MLOAD PUSH3 0x461BCD PUSH1 0xE5 SHL DUP2 MSTORE PUSH1 0x4 ADD PUSH2 0x4B8 SWAP1 PUSH2 0x1FD2 JUMP JUMPDEST PUSH1 0x0 DUP1 SLOAD PUSH1 0x40 MLOAD PUSH1 0x1 PUSH1 0x1 PUSH1 0xA0 SHL SUB SWAP1 SWAP2 AND SWAP1 PUSH32 0x8BE0079C531659141344CD1FD0A4F28419497F9722A3DAAFE3B4186F6B6457E0 SWAP1 DUP4 SWAP1 LOG3 PUSH1 0x0 DUP1 SLOAD PUSH1 0x1 PUSH1 0x1 PUSH1 0xA0 SHL SUB NOT AND SWAP1 SSTORE JUMP JUMPDEST PUSH1 0x8 SLOAD DUP2 JUMP JUMPDEST PUSH1 0x5 SLOAD PUSH1 0x1 PUSH1 0x1 PUSH1 0xA0 SHL SUB AND CALLER EQ PUSH2 0x1173 JUMPI PUSH1 0x40 MLOAD PUSH3 0x461BCD PUSH1 0xE5 SHL DUP2 MSTORE PUSH1 0x4 ADD PUSH2 0x4B8 SWAP1 PUSH2 0x1FAF JUMP JUMPDEST PUSH1 0x5 DUP1 SLOAD PUSH1 0x1 PUSH1 0x1 PUSH1 0xA0 SHL SUB NOT AND PUSH1 0x1 PUSH1 0x1 PUSH1 0xA0 SHL SUB SWAP3 SWAP1 SWAP3 AND SWAP2 SWAP1 SWAP2 OR SWAP1 SSTORE JUMP JUMPDEST PUSH1 0x0 SLOAD PUSH1 0x1 PUSH1 0x1 PUSH1 0xA0 SHL SUB AND SWAP1 JUMP JUMPDEST PUSH1 0x0 PUSH2 0x803 PUSH1 0x8 SLOAD PUSH2 0x7A4 DUP6 DUP6 PUSH2 0x7F7 JUMP JUMPDEST PUSH1 0xA PUSH1 0x20 SWAP1 DUP2 MSTORE PUSH1 0x0 SWAP3 DUP4 MSTORE PUSH1 0x40 DUP1 DUP5 KECCAK256 SWAP1 SWAP2 MSTORE SWAP1 DUP3 MSTORE SWAP1 KECCAK256 DUP1 SLOAD PUSH1 0x1 DUP3 ADD SLOAD PUSH1 0x2 SWAP1 SWAP3 ADD SLOAD SWAP1 SWAP2 SWAP1 DUP4 JUMP JUMPDEST PUSH2 0x11EA PUSH2 0x1963 JUMP JUMPDEST PUSH1 0x1 PUSH1 0x1 PUSH1 0xA0 SHL SUB AND PUSH2 0x11FB PUSH2 0x1195 JUMP JUMPDEST PUSH1 0x1 PUSH1 0x1 PUSH1 0xA0 SHL SUB AND EQ PUSH2 0x1221 JUMPI PUSH1 0x40 MLOAD PUSH3 0x461BCD PUSH1 0xE5 SHL DUP2 MSTORE PUSH1 0x4 ADD PUSH2 0x4B8 SWAP1 PUSH2 0x1FD2 JUMP JUMPDEST PUSH2 0x3E8 DUP3 LT PUSH2 0x1242 JUMPI PUSH1 0x40 MLOAD PUSH3 0x461BCD PUSH1 0xE5 SHL DUP2 MSTORE PUSH1 0x4 ADD PUSH2 0x4B8 SWAP1 PUSH2 0x1F27 JUMP JUMPDEST PUSH2 0x3E8 DUP2 LT PUSH2 0x1263 JUMPI PUSH1 0x40 MLOAD PUSH3 0x461BCD PUSH1 0xE5 SHL DUP2 MSTORE PUSH1 0x4 ADD PUSH2 0x4B8 SWAP1 PUSH2 0x1F27 JUMP JUMPDEST PUSH1 0x3 SLOAD PUSH1 0x40 MLOAD PUSH4 0x3521517 PUSH1 0xE5 SHL DUP2 MSTORE PUSH1 0x1 PUSH1 0x1 PUSH1 0xA0 SHL SUB SWAP1 SWAP2 AND SWAP1 PUSH4 0x6A42A2E0 SWAP1 PUSH2 0x1295 SWAP1 DUP6 SWAP1 DUP6 SWAP1 PUSH1 0x4 ADD PUSH2 0x20BD JUMP JUMPDEST PUSH1 0x0 PUSH1 0x40 MLOAD DUP1 DUP4 SUB DUP2 PUSH1 0x0 DUP8 DUP1 EXTCODESIZE ISZERO DUP1 ISZERO PUSH2 0x12AF JUMPI PUSH1 0x0 DUP1 REVERT JUMPDEST POP GAS CALL ISZERO DUP1 ISZERO PUSH2 0xB0D JUMPI RETURNDATASIZE PUSH1 0x0 DUP1 RETURNDATACOPY RETURNDATASIZE PUSH1 0x0 REVERT JUMPDEST PUSH1 0x3 SLOAD PUSH1 0x1 PUSH1 0x1 PUSH1 0xA0 SHL SUB AND DUP2 JUMP JUMPDEST PUSH1 0x5 SLOAD PUSH1 0x1 PUSH1 0x1 PUSH1 0xA0 SHL SUB AND DUP2 JUMP JUMPDEST DUP2 PUSH2 0x12FE JUMPI PUSH1 0x40 MLOAD PUSH3 0x461BCD PUSH1 0xE5 SHL DUP2 MSTORE PUSH1 0x4 ADD PUSH2 0x4B8 SWAP1 PUSH2 0x1EF0 JUMP JUMPDEST PUSH1 0x0 PUSH1 0x9 DUP4 DUP2 SLOAD DUP2 LT PUSH2 0x1321 JUMPI PUSH4 0x4E487B71 PUSH1 0xE0 SHL PUSH1 0x0 MSTORE PUSH1 0x32 PUSH1 0x4 MSTORE PUSH1 0x24 PUSH1 0x0 REVERT JUMPDEST PUSH1 0x0 SWAP2 DUP3 MSTORE PUSH1 0x20 DUP1 DUP4 KECCAK256 DUP7 DUP5 MSTORE PUSH1 0xA DUP3 MSTORE PUSH1 0x40 DUP1 DUP6 KECCAK256 CALLER DUP7 MSTORE SWAP1 SWAP3 MSTORE SWAP3 KECCAK256 PUSH1 0x7 SWAP1 SWAP2 MUL SWAP1 SWAP2 ADD SWAP2 POP PUSH2 0x1352 DUP5 PUSH2 0xD1B JUMP JUMPDEST DUP1 SLOAD ISZERO PUSH2 0x1405 JUMPI PUSH1 0x0 PUSH2 0x1387 DUP3 PUSH1 0x1 ADD SLOAD PUSH2 0x4FF PUSH5 0xE8D4A51000 PUSH2 0x4F9 DUP8 PUSH1 0x3 ADD SLOAD DUP8 PUSH1 0x0 ADD SLOAD PUSH2 0x1880 SWAP1 SWAP2 SWAP1 PUSH4 0xFFFFFFFF AND JUMP JUMPDEST PUSH1 0x6 DUP5 ADD SLOAD SWAP1 SWAP2 POP PUSH1 0xFF AND DUP1 ISZERO PUSH2 0x13A0 JUMPI POP PUSH1 0x2 SLOAD PUSH1 0xFF AND JUMPDEST ISZERO PUSH2 0x13F3 JUMPI PUSH2 0x13CF CALLER PUSH2 0xC28 DUP5 PUSH1 0x2 ADD SLOAD PUSH2 0x4FF PUSH2 0xC1D PUSH4 0x3B9ACA00 DUP9 PUSH1 0x0 ADD SLOAD PUSH2 0x188C SWAP1 SWAP2 SWAP1 PUSH4 0xFFFFFFFF AND JUMP JUMPDEST PUSH1 0x5 DUP4 ADD SLOAD DUP3 SLOAD PUSH2 0x13E9 SWAP2 SWAP1 PUSH2 0x7A4 SWAP1 PUSH4 0x3B9ACA00 PUSH2 0x188C JUMP JUMPDEST PUSH1 0x2 DUP4 ADD SSTORE PUSH2 0x1403 JUMP JUMPDEST DUP1 ISZERO PUSH2 0x1403 JUMPI PUSH2 0x1403 CALLER DUP3 PUSH2 0x18A4 JUMP JUMPDEST POP JUMPDEST DUP3 ISZERO PUSH2 0x1431 JUMPI DUP2 SLOAD PUSH2 0x1422 SWAP1 PUSH1 0x1 PUSH1 0x1 PUSH1 0xA0 SHL SUB AND CALLER ADDRESS DUP7 PUSH2 0x193C JUMP JUMPDEST DUP1 SLOAD PUSH2 0x142E SWAP1 DUP5 PUSH2 0x1930 JUMP JUMPDEST DUP2 SSTORE JUMPDEST PUSH1 0x6 DUP3 ADD SLOAD PUSH1 0xFF AND DUP1 ISZERO PUSH2 0x1447 JUMPI POP PUSH1 0x2 SLOAD PUSH1 0xFF AND JUMPDEST ISZERO PUSH2 0x1470 JUMPI PUSH1 0x5 DUP3 ADD SLOAD DUP2 SLOAD PUSH2 0x1466 SWAP2 SWAP1 PUSH2 0x7A4 SWAP1 PUSH4 0x3B9ACA00 PUSH2 0x188C JUMP JUMPDEST PUSH1 0x2 DUP3 ADD SSTORE PUSH2 0x1491 JUMP JUMPDEST PUSH1 0x3 DUP3 ADD SLOAD DUP2 SLOAD PUSH2 0x148B SWAP2 PUSH5 0xE8D4A51000 SWAP2 PUSH2 0x4F9 SWAP2 PUSH2 0x1880 JUMP JUMPDEST PUSH1 0x1 DUP3 ADD SSTORE JUMPDEST DUP4 CALLER PUSH1 0x1 PUSH1 0x1 PUSH1 0xA0 SHL SUB AND PUSH32 0x90890809C654F11D6E72A28FA60149770A0D11EC6C92319D6CEB2BB0A4EA1A15 DUP6 PUSH1 0x40 MLOAD PUSH2 0x5FF SWAP2 SWAP1 PUSH2 0x20B4 JUMP JUMPDEST PUSH1 0x0 DUP1 PUSH1 0x9 DUP5 DUP2 SLOAD DUP2 LT PUSH2 0x14EF JUMPI PUSH4 0x4E487B71 PUSH1 0xE0 SHL PUSH1 0x0 MSTORE PUSH1 0x32 PUSH1 0x4 MSTORE PUSH1 0x24 PUSH1 0x0 REVERT JUMPDEST PUSH1 0x0 SWAP2 DUP3 MSTORE PUSH1 0x20 DUP1 DUP4 KECCAK256 DUP8 DUP5 MSTORE PUSH1 0xA DUP3 MSTORE PUSH1 0x40 DUP1 DUP6 KECCAK256 PUSH1 0x1 PUSH1 0x1 PUSH1 0xA0 SHL SUB DUP1 DUP11 AND DUP8 MSTORE SWAP4 MSTORE DUP1 DUP6 KECCAK256 PUSH1 0x3 PUSH1 0x7 SWAP1 SWAP6 MUL SWAP1 SWAP3 ADD SWAP4 DUP5 ADD SLOAD DUP5 SLOAD SWAP2 MLOAD PUSH4 0x70A08231 PUSH1 0xE0 SHL DUP2 MSTORE SWAP5 SWAP7 POP SWAP2 SWAP5 SWAP2 SWAP4 SWAP2 SWAP3 AND SWAP1 PUSH4 0x70A08231 SWAP1 PUSH2 0x1552 SWAP1 ADDRESS SWAP1 PUSH1 0x4 ADD PUSH2 0x1DA7 JUMP JUMPDEST PUSH1 0x20 PUSH1 0x40 MLOAD DUP1 DUP4 SUB DUP2 DUP7 DUP1 EXTCODESIZE ISZERO DUP1 ISZERO PUSH2 0x156A JUMPI PUSH1 0x0 DUP1 REVERT JUMPDEST POP GAS STATICCALL ISZERO DUP1 ISZERO PUSH2 0x157E JUMPI RETURNDATASIZE PUSH1 0x0 DUP1 RETURNDATACOPY RETURNDATASIZE PUSH1 0x0 REVERT JUMPDEST POP POP POP POP PUSH1 0x40 MLOAD RETURNDATASIZE PUSH1 0x1F NOT PUSH1 0x1F DUP3 ADD AND DUP3 ADD DUP1 PUSH1 0x40 MSTORE POP DUP2 ADD SWAP1 PUSH2 0x15A2 SWAP2 SWAP1 PUSH2 0x1C8B JUMP JUMPDEST SWAP1 POP DUP4 PUSH1 0x2 ADD SLOAD NUMBER GT DUP1 ISZERO PUSH2 0x15B6 JUMPI POP DUP1 ISZERO ISZERO JUMPDEST ISZERO PUSH2 0x1616 JUMPI PUSH1 0x0 PUSH2 0x15CB DUP6 PUSH1 0x2 ADD SLOAD NUMBER PUSH2 0x11A4 JUMP JUMPDEST SWAP1 POP PUSH1 0x0 PUSH2 0x15F2 PUSH1 0xB SLOAD PUSH2 0x4F9 DUP9 PUSH1 0x1 ADD SLOAD PUSH2 0x7A4 PUSH1 0x7 SLOAD DUP8 PUSH2 0x1880 SWAP1 SWAP2 SWAP1 PUSH4 0xFFFFFFFF AND JUMP JUMPDEST SWAP1 POP PUSH2 0x1611 PUSH2 0x160A DUP5 PUSH2 0x4F9 DUP5 PUSH5 0xE8D4A51000 PUSH2 0x1880 JUMP JUMPDEST DUP6 SWAP1 PUSH2 0x1930 JUMP JUMPDEST SWAP4 POP POP POP JUMPDEST PUSH2 0x7E6 DUP4 PUSH1 0x1 ADD SLOAD PUSH2 0x4FF PUSH5 0xE8D4A51000 PUSH2 0x4F9 DUP7 DUP9 PUSH1 0x0 ADD SLOAD PUSH2 0x1880 SWAP1 SWAP2 SWAP1 PUSH4 0xFFFFFFFF AND JUMP JUMPDEST PUSH1 0x2 SLOAD PUSH2 0x100 SWAP1 DIV PUSH1 0x1 PUSH1 0x1 PUSH1 0xA0 SHL SUB AND DUP2 JUMP JUMPDEST PUSH1 0x7 SLOAD DUP2 JUMP JUMPDEST PUSH2 0x1660 PUSH2 0x1963 JUMP JUMPDEST PUSH1 0x1 PUSH1 0x1 PUSH1 0xA0 SHL SUB AND PUSH2 0x1671 PUSH2 0x1195 JUMP JUMPDEST PUSH1 0x1 PUSH1 0x1 PUSH1 0xA0 SHL SUB AND EQ PUSH2 0x1697 JUMPI PUSH1 0x40 MLOAD PUSH3 0x461BCD PUSH1 0xE5 SHL DUP2 MSTORE PUSH1 0x4 ADD PUSH2 0x4B8 SWAP1 PUSH2 0x1FD2 JUMP JUMPDEST DUP2 ISZERO PUSH2 0x16A5 JUMPI PUSH2 0x16A5 PUSH2 0x108F JUMP JUMPDEST PUSH1 0x0 PUSH1 0x9 DUP6 DUP2 SLOAD DUP2 LT PUSH2 0x16C8 JUMPI PUSH4 0x4E487B71 PUSH1 0xE0 SHL PUSH1 0x0 MSTORE PUSH1 0x32 PUSH1 0x4 MSTORE PUSH1 0x24 PUSH1 0x0 REVERT JUMPDEST SWAP1 PUSH1 0x0 MSTORE PUSH1 0x20 PUSH1 0x0 KECCAK256 SWAP1 PUSH1 0x7 MUL ADD PUSH1 0x1 ADD SLOAD SWAP1 POP DUP4 PUSH1 0x9 DUP7 DUP2 SLOAD DUP2 LT PUSH2 0x16FE JUMPI PUSH4 0x4E487B71 PUSH1 0xE0 SHL PUSH1 0x0 MSTORE PUSH1 0x32 PUSH1 0x4 MSTORE PUSH1 0x24 PUSH1 0x0 REVERT JUMPDEST SWAP1 PUSH1 0x0 MSTORE PUSH1 0x20 PUSH1 0x0 KECCAK256 SWAP1 PUSH1 0x7 MUL ADD PUSH1 0x1 ADD DUP2 SWAP1 SSTORE POP PUSH1 0x9 DUP6 DUP2 SLOAD DUP2 LT PUSH2 0x1734 JUMPI PUSH4 0x4E487B71 PUSH1 0xE0 SHL PUSH1 0x0 MSTORE PUSH1 0x32 PUSH1 0x4 MSTORE PUSH1 0x24 PUSH1 0x0 REVERT JUMPDEST PUSH1 0x0 SWAP2 DUP3 MSTORE PUSH1 0x20 SWAP1 SWAP2 KECCAK256 PUSH1 0x6 PUSH1 0x7 SWAP1 SWAP3 MUL ADD ADD SLOAD PUSH1 0xFF AND ISZERO PUSH2 0x1788 JUMPI DUP2 PUSH1 0x9 DUP7 DUP2 SLOAD DUP2 LT PUSH2 0x1772 JUMPI PUSH4 0x4E487B71 PUSH1 0xE0 SHL PUSH1 0x0 MSTORE PUSH1 0x32 PUSH1 0x4 MSTORE PUSH1 0x24 PUSH1 0x0 REVERT JUMPDEST SWAP1 PUSH1 0x0 MSTORE PUSH1 0x20 PUSH1 0x0 KECCAK256 SWAP1 PUSH1 0x7 MUL ADD PUSH1 0x4 ADD DUP2 SWAP1 SSTORE POP JUMPDEST DUP4 DUP2 EQ PUSH2 0x17B9 JUMPI PUSH2 0x17AE DUP5 PUSH2 0x17A8 DUP4 PUSH1 0xB SLOAD PUSH2 0x1898 SWAP1 SWAP2 SWAP1 PUSH4 0xFFFFFFFF AND JUMP JUMPDEST SWAP1 PUSH2 0x1930 JUMP JUMPDEST PUSH1 0xB SSTORE PUSH2 0x17B9 PUSH2 0x1967 JUMP JUMPDEST POP POP POP POP POP JUMP JUMPDEST PUSH2 0x17C8 PUSH2 0x1963 JUMP JUMPDEST PUSH1 0x1 PUSH1 0x1 PUSH1 0xA0 SHL SUB AND PUSH2 0x17D9 PUSH2 0x1195 JUMP JUMPDEST PUSH1 0x1 PUSH1 0x1 PUSH1 0xA0 SHL SUB AND EQ PUSH2 0x17FF JUMPI PUSH1 0x40 MLOAD PUSH3 0x461BCD PUSH1 0xE5 SHL DUP2 MSTORE PUSH1 0x4 ADD PUSH2 0x4B8 SWAP1 PUSH2 0x1FD2 JUMP JUMPDEST PUSH1 0x1 PUSH1 0x1 PUSH1 0xA0 SHL SUB DUP2 AND PUSH2 0x1825 JUMPI PUSH1 0x40 MLOAD PUSH3 0x461BCD PUSH1 0xE5 SHL DUP2 MSTORE PUSH1 0x4 ADD PUSH2 0x4B8 SWAP1 PUSH2 0x1EAA JUMP JUMPDEST PUSH1 0x0 DUP1 SLOAD PUSH1 0x40 MLOAD PUSH1 0x1 PUSH1 0x1 PUSH1 0xA0 SHL SUB DUP1 DUP6 AND SWAP4 SWAP3 AND SWAP2 PUSH32 0x8BE0079C531659141344CD1FD0A4F28419497F9722A3DAAFE3B4186F6B6457E0 SWAP2 LOG3 PUSH1 0x0 DUP1 SLOAD PUSH1 0x1 PUSH1 0x1 PUSH1 0xA0 SHL SUB NOT AND PUSH1 0x1 PUSH1 0x1 PUSH1 0xA0 SHL SUB SWAP3 SWAP1 SWAP3 AND SWAP2 SWAP1 SWAP2 OR SWAP1 SSTORE JUMP JUMPDEST PUSH1 0x0 PUSH2 0x803 DUP3 DUP5 PUSH2 0x2119 JUMP JUMPDEST PUSH1 0x0 PUSH2 0x803 DUP3 DUP5 PUSH2 0x20F9 JUMP JUMPDEST PUSH1 0x0 PUSH2 0x803 DUP3 DUP5 PUSH2 0x2138 JUMP JUMPDEST PUSH1 0x4 DUP1 SLOAD PUSH1 0x40 MLOAD PUSH4 0xD76A923 PUSH1 0xE1 SHL DUP2 MSTORE PUSH1 0x1 PUSH1 0x1 PUSH1 0xA0 SHL SUB SWAP1 SWAP2 AND SWAP2 PUSH4 0x1AED5246 SWAP2 PUSH2 0x1295 SWAP2 DUP7 SWAP2 DUP7 SWAP2 ADD PUSH2 0x1DDF JUMP JUMPDEST PUSH2 0x192B DUP4 PUSH4 0xA9059CBB PUSH1 0xE0 SHL DUP5 DUP5 PUSH1 0x40 MLOAD PUSH1 0x24 ADD PUSH2 0x18F4 SWAP3 SWAP2 SWAP1 PUSH2 0x1DDF JUMP JUMPDEST PUSH1 0x40 DUP1 MLOAD PUSH1 0x1F NOT DUP2 DUP5 SUB ADD DUP2 MSTORE SWAP2 SWAP1 MSTORE PUSH1 0x20 DUP2 ADD DUP1 MLOAD PUSH1 0x1 PUSH1 0x1 PUSH1 0xE0 SHL SUB AND PUSH1 0x1 PUSH1 0x1 PUSH1 0xE0 SHL SUB NOT SWAP1 SWAP4 AND SWAP3 SWAP1 SWAP3 OR SWAP1 SWAP2 MSTORE PUSH2 0x1AA1 JUMP JUMPDEST POP POP POP JUMP JUMPDEST PUSH1 0x0 PUSH2 0x803 DUP3 DUP5 PUSH2 0x20E1 JUMP JUMPDEST PUSH2 0x195D DUP5 PUSH4 0x23B872DD PUSH1 0xE0 SHL DUP6 DUP6 DUP6 PUSH1 0x40 MLOAD PUSH1 0x24 ADD PUSH2 0x18F4 SWAP4 SWAP3 SWAP2 SWAP1 PUSH2 0x1DBB JUMP JUMPDEST POP POP POP POP JUMP JUMPDEST CALLER SWAP1 JUMP JUMPDEST PUSH1 0x9 SLOAD PUSH1 0x0 PUSH1 0x1 JUMPDEST DUP3 DUP2 LT ISZERO PUSH2 0x19CE JUMPI PUSH2 0x19BC PUSH1 0x9 DUP3 DUP2 SLOAD DUP2 LT PUSH2 0x199B JUMPI PUSH4 0x4E487B71 PUSH1 0xE0 SHL PUSH1 0x0 MSTORE PUSH1 0x32 PUSH1 0x4 MSTORE PUSH1 0x24 PUSH1 0x0 REVERT JUMPDEST SWAP1 PUSH1 0x0 MSTORE PUSH1 0x20 PUSH1 0x0 KECCAK256 SWAP1 PUSH1 0x7 MUL ADD PUSH1 0x1 ADD SLOAD DUP4 PUSH2 0x1930 SWAP1 SWAP2 SWAP1 PUSH4 0xFFFFFFFF AND JUMP JUMPDEST SWAP2 POP PUSH2 0x19C7 DUP2 PUSH2 0x217B JUMP JUMPDEST SWAP1 POP PUSH2 0x196F JUMP JUMPDEST POP DUP1 ISZERO PUSH2 0x10B6 JUMPI PUSH2 0x19E0 DUP2 PUSH1 0x4 PUSH2 0x188C JUMP JUMPDEST SWAP1 POP PUSH2 0x1A2E DUP2 PUSH2 0x17A8 PUSH1 0x9 PUSH1 0x0 DUP2 SLOAD DUP2 LT PUSH2 0x1A0B JUMPI PUSH4 0x4E487B71 PUSH1 0xE0 SHL PUSH1 0x0 MSTORE PUSH1 0x32 PUSH1 0x4 MSTORE PUSH1 0x24 PUSH1 0x0 REVERT JUMPDEST SWAP1 PUSH1 0x0 MSTORE PUSH1 0x20 PUSH1 0x0 KECCAK256 SWAP1 PUSH1 0x7 MUL ADD PUSH1 0x1 ADD SLOAD PUSH1 0xB SLOAD PUSH2 0x1898 SWAP1 SWAP2 SWAP1 PUSH4 0xFFFFFFFF AND JUMP JUMPDEST PUSH1 0xB DUP2 SWAP1 SSTORE POP DUP1 PUSH1 0x9 PUSH1 0x0 DUP2 SLOAD DUP2 LT PUSH2 0x1A57 JUMPI PUSH4 0x4E487B71 PUSH1 0xE0 SHL PUSH1 0x0 MSTORE PUSH1 0x32 PUSH1 0x4 MSTORE PUSH1 0x24 PUSH1 0x0 REVERT JUMPDEST SWAP1 PUSH1 0x0 MSTORE PUSH1 0x20 PUSH1 0x0 KECCAK256 SWAP1 PUSH1 0x7 MUL ADD PUSH1 0x1 ADD DUP2 SWAP1 SSTORE POP POP POP JUMP JUMPDEST PUSH1 0x4 DUP1 SLOAD PUSH1 0x40 MLOAD PUSH4 0x21C12D17 PUSH1 0xE2 SHL DUP2 MSTORE PUSH1 0x1 PUSH1 0x1 PUSH1 0xA0 SHL SUB SWAP1 SWAP2 AND SWAP2 PUSH4 0x8704B45C SWAP2 PUSH2 0x1295 SWAP2 DUP7 SWAP2 DUP7 SWAP2 ADD PUSH2 0x1DDF JUMP JUMPDEST PUSH1 0x0 PUSH2 0x1AF6 DUP3 PUSH1 0x40 MLOAD DUP1 PUSH1 0x40 ADD PUSH1 0x40 MSTORE DUP1 PUSH1 0x20 DUP2 MSTORE PUSH1 0x20 ADD PUSH32 0x5361666545524332303A206C6F772D6C6576656C2063616C6C206661696C6564 DUP2 MSTORE POP DUP6 PUSH1 0x1 PUSH1 0x1 PUSH1 0xA0 SHL SUB AND PUSH2 0x1B30 SWAP1 SWAP3 SWAP2 SWAP1 PUSH4 0xFFFFFFFF AND JUMP JUMPDEST DUP1 MLOAD SWAP1 SWAP2 POP ISZERO PUSH2 0x192B JUMPI DUP1 DUP1 PUSH1 0x20 ADD SWAP1 MLOAD DUP2 ADD SWAP1 PUSH2 0x1B14 SWAP2 SWAP1 PUSH2 0x1C57 JUMP JUMPDEST PUSH2 0x192B JUMPI PUSH1 0x40 MLOAD PUSH3 0x461BCD PUSH1 0xE5 SHL DUP2 MSTORE PUSH1 0x4 ADD PUSH2 0x4B8 SWAP1 PUSH2 0x206A JUMP JUMPDEST PUSH1 0x60 PUSH2 0x1B3F DUP5 DUP5 PUSH1 0x0 DUP6 PUSH2 0x1B47 JUMP JUMPDEST SWAP5 SWAP4 POP POP POP POP JUMP JUMPDEST PUSH1 0x60 DUP3 SELFBALANCE LT ISZERO PUSH2 0x1B69 JUMPI PUSH1 0x40 MLOAD PUSH3 0x461BCD PUSH1 0xE5 SHL DUP2 MSTORE PUSH1 0x4 ADD PUSH2 0x4B8 SWAP1 PUSH2 0x1F69 JUMP JUMPDEST PUSH2 0x1B72 DUP6 PUSH2 0x1BFC JUMP JUMPDEST PUSH2 0x1B8E JUMPI PUSH1 0x40 MLOAD PUSH3 0x461BCD PUSH1 0xE5 SHL DUP2 MSTORE PUSH1 0x4 ADD PUSH2 0x4B8 SWAP1 PUSH2 0x2007 JUMP JUMPDEST PUSH1 0x0 DUP1 DUP7 PUSH1 0x1 PUSH1 0x1 PUSH1 0xA0 SHL SUB AND DUP6 DUP8 PUSH1 0x40 MLOAD PUSH2 0x1BAA SWAP2 SWAP1 PUSH2 0x1D8B JUMP JUMPDEST PUSH1 0x0 PUSH1 0x40 MLOAD DUP1 DUP4 SUB DUP2 DUP6 DUP8 GAS CALL SWAP3 POP POP POP RETURNDATASIZE DUP1 PUSH1 0x0 DUP2 EQ PUSH2 0x1BE7 JUMPI PUSH1 0x40 MLOAD SWAP2 POP PUSH1 0x1F NOT PUSH1 0x3F RETURNDATASIZE ADD AND DUP3 ADD PUSH1 0x40 MSTORE RETURNDATASIZE DUP3 MSTORE RETURNDATASIZE PUSH1 0x0 PUSH1 0x20 DUP5 ADD RETURNDATACOPY PUSH2 0x1BEC JUMP JUMPDEST PUSH1 0x60 SWAP2 POP JUMPDEST POP SWAP2 POP SWAP2 POP PUSH2 0x7E6 DUP3 DUP3 DUP7 PUSH2 0x1C02 JUMP JUMPDEST EXTCODESIZE ISZERO ISZERO SWAP1 JUMP JUMPDEST PUSH1 0x60 DUP4 ISZERO PUSH2 0x1C11 JUMPI POP DUP2 PUSH2 0x803 JUMP JUMPDEST DUP3 MLOAD ISZERO PUSH2 0x1C21 JUMPI DUP3 MLOAD DUP1 DUP5 PUSH1 0x20 ADD REVERT JUMPDEST DUP2 PUSH1 0x40 MLOAD PUSH3 0x461BCD PUSH1 0xE5 SHL DUP2 MSTORE PUSH1 0x4 ADD PUSH2 0x4B8 SWAP2 SWAP1 PUSH2 0x1E40 JUMP JUMPDEST PUSH1 0x0 PUSH1 0x20 DUP3 DUP5 SUB SLT ISZERO PUSH2 0x1C4C JUMPI DUP1 DUP2 REVERT JUMPDEST DUP2 CALLDATALOAD PUSH2 0x803 DUP2 PUSH2 0x21AC JUMP JUMPDEST PUSH1 0x0 PUSH1 0x20 DUP3 DUP5 SUB SLT ISZERO PUSH2 0x1C68 JUMPI DUP1 DUP2 REVERT JUMPDEST DUP2 MLOAD PUSH2 0x803 DUP2 PUSH2 0x21C1 JUMP JUMPDEST PUSH1 0x0 PUSH1 0x20 DUP3 DUP5 SUB SLT ISZERO PUSH2 0x1C84 JUMPI DUP1 DUP2 REVERT JUMPDEST POP CALLDATALOAD SWAP2 SWAP1 POP JUMP JUMPDEST PUSH1 0x0 PUSH1 0x20 DUP3 DUP5 SUB SLT ISZERO PUSH2 0x1C9C JUMPI DUP1 DUP2 REVERT JUMPDEST POP MLOAD SWAP2 SWAP1 POP JUMP JUMPDEST PUSH1 0x0 DUP1 PUSH1 0x40 DUP4 DUP6 SUB SLT ISZERO PUSH2 0x1CB5 JUMPI DUP1 DUP2 REVERT JUMPDEST DUP3 CALLDATALOAD SWAP2 POP PUSH1 0x20 DUP4 ADD CALLDATALOAD PUSH2 0x1CC7 DUP2 PUSH2 0x21AC JUMP JUMPDEST DUP1 SWAP2 POP POP SWAP3 POP SWAP3 SWAP1 POP JUMP JUMPDEST PUSH1 0x0 DUP1 PUSH1 0x0 DUP1 PUSH1 0x0 PUSH1 0xA0 DUP7 DUP9 SUB SLT ISZERO PUSH2 0x1CE9 JUMPI DUP1 DUP2 REVERT JUMPDEST DUP6 CALLDATALOAD SWAP5 POP PUSH1 0x20 DUP7 ADD CALLDATALOAD PUSH2 0x1CFB DUP2 PUSH2 0x21AC JUMP JUMPDEST SWAP4 POP PUSH1 0x40 DUP7 ADD CALLDATALOAD PUSH2 0x1D0B DUP2 PUSH2 0x21C1 JUMP JUMPDEST SWAP3 POP PUSH1 0x60 DUP7 ADD CALLDATALOAD PUSH2 0x1D1B DUP2 PUSH2 0x21C1 JUMP JUMPDEST SWAP5 SWAP8 SWAP4 SWAP7 POP SWAP2 SWAP5 PUSH1 0x80 ADD CALLDATALOAD SWAP3 SWAP2 POP POP JUMP JUMPDEST PUSH1 0x0 DUP1 PUSH1 0x40 DUP4 DUP6 SUB SLT ISZERO PUSH2 0x1D3E JUMPI DUP2 DUP3 REVERT JUMPDEST POP POP DUP1 CALLDATALOAD SWAP3 PUSH1 0x20 SWAP1 SWAP2 ADD CALLDATALOAD SWAP2 POP JUMP JUMPDEST PUSH1 0x0 DUP1 PUSH1 0x0 DUP1 PUSH1 0x80 DUP6 DUP8 SUB SLT ISZERO PUSH2 0x1D62 JUMPI DUP4 DUP5 REVERT JUMPDEST DUP5 CALLDATALOAD SWAP4 POP PUSH1 0x20 DUP6 ADD CALLDATALOAD SWAP3 POP PUSH1 0x40 DUP6 ADD CALLDATALOAD PUSH2 0x1D7B DUP2 PUSH2 0x21C1 JUMP JUMPDEST SWAP4 SWAP7 SWAP3 SWAP6 POP SWAP3 SWAP4 PUSH1 0x60 ADD CALLDATALOAD SWAP3 POP POP JUMP JUMPDEST PUSH1 0x0 DUP3 MLOAD PUSH2 0x1D9D DUP2 DUP5 PUSH1 0x20 DUP8 ADD PUSH2 0x214F JUMP JUMPDEST SWAP2 SWAP1 SWAP2 ADD SWAP3 SWAP2 POP POP JUMP JUMPDEST PUSH1 0x1 PUSH1 0x1 PUSH1 0xA0 SHL SUB SWAP2 SWAP1 SWAP2 AND DUP2 MSTORE PUSH1 0x20 ADD SWAP1 JUMP JUMPDEST PUSH1 0x1 PUSH1 0x1 PUSH1 0xA0 SHL SUB SWAP4 DUP5 AND DUP2 MSTORE SWAP2 SWAP1 SWAP3 AND PUSH1 0x20 DUP3 ADD MSTORE PUSH1 0x40 DUP2 ADD SWAP2 SWAP1 SWAP2 MSTORE PUSH1 0x60 ADD SWAP1 JUMP JUMPDEST PUSH1 0x1 PUSH1 0x1 PUSH1 0xA0 SHL SUB SWAP3 SWAP1 SWAP3 AND DUP3 MSTORE PUSH1 0x20 DUP3 ADD MSTORE PUSH1 0x40 ADD SWAP1 JUMP JUMPDEST SWAP1 ISZERO ISZERO DUP2 MSTORE PUSH1 0x20 ADD SWAP1 JUMP JUMPDEST PUSH1 0x1 PUSH1 0x1 PUSH1 0xA0 SHL SUB SWAP8 SWAP1 SWAP8 AND DUP8 MSTORE PUSH1 0x20 DUP8 ADD SWAP6 SWAP1 SWAP6 MSTORE PUSH1 0x40 DUP7 ADD SWAP4 SWAP1 SWAP4 MSTORE PUSH1 0x60 DUP6 ADD SWAP2 SWAP1 SWAP2 MSTORE PUSH1 0x80 DUP5 ADD MSTORE PUSH1 0xA0 DUP4 ADD MSTORE ISZERO ISZERO PUSH1 0xC0 DUP3 ADD MSTORE PUSH1 0xE0 ADD SWAP1 JUMP JUMPDEST PUSH1 0x0 PUSH1 0x20 DUP3 MSTORE DUP3 MLOAD DUP1 PUSH1 0x20 DUP5 ADD MSTORE PUSH2 0x1E5F DUP2 PUSH1 0x40 DUP6 ADD PUSH1 0x20 DUP8 ADD PUSH2 0x214F JUMP JUMPDEST PUSH1 0x1F ADD PUSH1 0x1F NOT AND SWAP2 SWAP1 SWAP2 ADD PUSH1 0x40 ADD SWAP3 SWAP2 POP POP JUMP JUMPDEST PUSH1 0x20 DUP1 DUP3 MSTORE PUSH1 0x1E SWAP1 DUP3 ADD MSTORE PUSH32 0x776974686472617720617374657269736B20627920756E7374616B696E670000 PUSH1 0x40 DUP3 ADD MSTORE PUSH1 0x60 ADD SWAP1 JUMP JUMPDEST PUSH1 0x20 DUP1 DUP3 MSTORE PUSH1 0x26 SWAP1 DUP3 ADD MSTORE PUSH32 0x4F776E61626C653A206E6577206F776E657220697320746865207A65726F2061 PUSH1 0x40 DUP3 ADD MSTORE PUSH6 0x646472657373 PUSH1 0xD0 SHL PUSH1 0x60 DUP3 ADD MSTORE PUSH1 0x80 ADD SWAP1 JUMP JUMPDEST PUSH1 0x20 DUP1 DUP3 MSTORE PUSH1 0x1B SWAP1 DUP3 ADD MSTORE PUSH32 0x6465706F73697420617374657269736B206279207374616B696E670000000000 PUSH1 0x40 DUP3 ADD MSTORE PUSH1 0x60 ADD SWAP1 JUMP JUMPDEST PUSH1 0x20 DUP1 DUP3 MSTORE PUSH1 0x22 SWAP1 DUP3 ADD MSTORE PUSH32 0x4275726E696E672072617465206D757374206265206C6F77207468616E203130 PUSH1 0x40 DUP3 ADD MSTORE PUSH2 0x303 PUSH1 0xF4 SHL PUSH1 0x60 DUP3 ADD MSTORE PUSH1 0x80 ADD SWAP1 JUMP JUMPDEST PUSH1 0x20 DUP1 DUP3 MSTORE PUSH1 0x26 SWAP1 DUP3 ADD MSTORE PUSH32 0x416464726573733A20696E73756666696369656E742062616C616E636520666F PUSH1 0x40 DUP3 ADD MSTORE PUSH6 0x1C8818D85B1B PUSH1 0xD2 SHL PUSH1 0x60 DUP3 ADD MSTORE PUSH1 0x80 ADD SWAP1 JUMP JUMPDEST PUSH1 0x20 DUP1 DUP3 MSTORE PUSH1 0x9 SWAP1 DUP3 ADD MSTORE PUSH9 0x6465763A207775743F PUSH1 0xB8 SHL PUSH1 0x40 DUP3 ADD MSTORE PUSH1 0x60 ADD SWAP1 JUMP JUMPDEST PUSH1 0x20 DUP1 DUP3 MSTORE DUP2 DUP2 ADD MSTORE PUSH32 0x4F776E61626C653A2063616C6C6572206973206E6F7420746865206F776E6572 PUSH1 0x40 DUP3 ADD MSTORE PUSH1 0x60 ADD SWAP1 JUMP JUMPDEST PUSH1 0x20 DUP1 DUP3 MSTORE PUSH1 0x1D SWAP1 DUP3 ADD MSTORE PUSH32 0x416464726573733A2063616C6C20746F206E6F6E2D636F6E7472616374000000 PUSH1 0x40 DUP3 ADD MSTORE PUSH1 0x60 ADD SWAP1 JUMP JUMPDEST PUSH1 0x20 DUP1 DUP3 MSTORE PUSH1 0x12 SWAP1 DUP3 ADD MSTORE PUSH18 0x1DDA5D1A191C985DCE881B9BDD0819DBDBD9 PUSH1 0x72 SHL PUSH1 0x40 DUP3 ADD MSTORE PUSH1 0x60 ADD SWAP1 JUMP JUMPDEST PUSH1 0x20 DUP1 DUP3 MSTORE PUSH1 0x2A SWAP1 DUP3 ADD MSTORE PUSH32 0x5361666545524332303A204552433230206F7065726174696F6E20646964206E PUSH1 0x40 DUP3 ADD MSTORE PUSH10 0x1BDD081CDD58D8D95959 PUSH1 0xB2 SHL PUSH1 0x60 DUP3 ADD MSTORE PUSH1 0x80 ADD SWAP1 JUMP JUMPDEST SWAP1 DUP2 MSTORE PUSH1 0x20 ADD SWAP1 JUMP JUMPDEST SWAP2 DUP3 MSTORE PUSH1 0x20 DUP3 ADD MSTORE PUSH1 0x40 ADD SWAP1 JUMP JUMPDEST SWAP3 DUP4 MSTORE PUSH1 0x20 DUP4 ADD SWAP2 SWAP1 SWAP2 MSTORE PUSH1 0x40 DUP3 ADD MSTORE PUSH1 0x60 ADD SWAP1 JUMP JUMPDEST PUSH1 0x0 DUP3 NOT DUP3 GT ISZERO PUSH2 0x20F4 JUMPI PUSH2 0x20F4 PUSH2 0x2196 JUMP JUMPDEST POP ADD SWAP1 JUMP JUMPDEST PUSH1 0x0 DUP3 PUSH2 0x2114 JUMPI PUSH4 0x4E487B71 PUSH1 0xE0 SHL DUP2 MSTORE PUSH1 0x12 PUSH1 0x4 MSTORE PUSH1 0x24 DUP2 REVERT JUMPDEST POP DIV SWAP1 JUMP JUMPDEST PUSH1 0x0 DUP2 PUSH1 0x0 NOT DIV DUP4 GT DUP3 ISZERO ISZERO AND ISZERO PUSH2 0x2133 JUMPI PUSH2 0x2133 PUSH2 0x2196 JUMP JUMPDEST POP MUL SWAP1 JUMP JUMPDEST PUSH1 0x0 DUP3 DUP3 LT ISZERO PUSH2 0x214A JUMPI PUSH2 0x214A PUSH2 0x2196 JUMP JUMPDEST POP SUB SWAP1 JUMP JUMPDEST PUSH1 0x0 JUMPDEST DUP4 DUP2 LT ISZERO PUSH2 0x216A JUMPI DUP2 DUP2 ADD MLOAD DUP4 DUP3 ADD MSTORE PUSH1 0x20 ADD PUSH2 0x2152 JUMP JUMPDEST DUP4 DUP2 GT ISZERO PUSH2 0x195D JUMPI POP POP PUSH1 0x0 SWAP2 ADD MSTORE JUMP JUMPDEST PUSH1 0x0 PUSH1 0x0 NOT DUP3 EQ ISZERO PUSH2 0x218F JUMPI PUSH2 0x218F PUSH2 0x2196 JUMP JUMPDEST POP PUSH1 0x1 ADD SWAP1 JUMP JUMPDEST PUSH4 0x4E487B71 PUSH1 0xE0 SHL PUSH1 0x0 MSTORE PUSH1 0x11 PUSH1 0x4 MSTORE PUSH1 0x24 PUSH1 0x0 REVERT JUMPDEST PUSH1 0x1 PUSH1 0x1 PUSH1 0xA0 SHL SUB DUP2 AND DUP2 EQ PUSH2 0xF8F JUMPI PUSH1 0x0 DUP1 REVERT JUMPDEST DUP1 ISZERO ISZERO DUP2 EQ PUSH2 0xF8F JUMPI PUSH1 0x0 DUP1 REVERT INVALID LOG2 PUSH5 0x6970667358 0x22 SLT KECCAK256 0x2D SWAP1 0x5C 0xE 0x27 MSTORE8 0xE8 0xB5 PUSH25 0x3A74F41C92D88D6CB8562086EC6EFD95E53C5C1D2460B46473 PUSH16 0x6C634300080100330000000000000000 "
		},
		"gasEstimates": {
			"creation": {
				"codeDepositCost": "1741800",
				"executionCost": "infinite",
				"totalCost": "infinite"
			},
			"external": {
				"BONUS_MULTIPLIER()": "1140",
				"add(uint256,address,bool,bool,uint256)": "infinite",
				"asterisk()": "1137",
				"asteriskPerBlock()": "1116",
				"deposit(uint256,uint256)": "infinite",
				"dev(address)": "22050",
				"devaddr()": "1159",
				"emergencyWithdraw(uint256)": "infinite",
				"enterStaking(uint256)": "infinite",
				"getCalculatedMultiplier(uint256,uint256)": "infinite",
				"getMultiplier(uint256,uint256)": "infinite",
				"gov()": "1183",
				"isMooniRewardPossible()": "1086",
				"leaveStaking(uint256)": "infinite",
				"massUpdatePools()": "infinite",
				"mooni()": "1147",
				"mooniPerBlock()": "1139",
				"owner()": "1137",
				"pending(uint256,address)": "infinite",
				"pendingMooni(uint256,address)": "infinite",
				"poolInfo(uint256)": "7135",
				"poolLength()": "1075",
				"renounceOwnership()": "24345",
				"set(uint256,uint256,bool,uint256)": "infinite",
				"setAsteriskBurnRate(uint256,uint256)": "infinite",
				"setRewardCountPerBlock(uint256,uint256)": "40350",
				"startBlock()": "1073",
				"totalAllocPoint()": "1118",
				"transferOwnership(address)": "24616",
				"updateMultiplier(uint256)": "21200",
				"updatePool(uint256)": "infinite",
				"userInfo(uint256,address)": "3138",
				"withdraw(uint256,uint256)": "infinite"
			},
			"internal": {
				"safeAsteriskTransfer(address,uint256)": "infinite",
				"safeMooniTransfer(address,uint256)": "infinite",
				"updateStakingPool()": "infinite"
			}
		},
		"methodIdentifiers": {
			"BONUS_MULTIPLIER()": "8aa28550",
			"add(uint256,address,bool,bool,uint256)": "4299ecaf",
			"asterisk()": "cd36cd8f",
			"asteriskPerBlock()": "eb282250",
			"deposit(uint256,uint256)": "e2bbb158",
			"dev(address)": "8d88a90e",
			"devaddr()": "d49e77cd",
			"emergencyWithdraw(uint256)": "5312ea8e",
			"enterStaking(uint256)": "41441d3b",
			"getCalculatedMultiplier(uint256,uint256)": "2de4b792",
			"getMultiplier(uint256,uint256)": "8dbb1e3a",
			"gov()": "12d43a51",
			"isMooniRewardPossible()": "3e6f97e8",
			"leaveStaking(uint256)": "1058d281",
			"massUpdatePools()": "630b5ba1",
			"mooni()": "e9b0e7d4",
			"mooniPerBlock()": "557de0b6",
			"owner()": "8da5cb5b",
			"pending(uint256,address)": "e4c75c27",
			"pendingMooni(uint256,address)": "173819d2",
			"poolInfo(uint256)": "1526fe27",
			"poolLength()": "081e3eda",
			"renounceOwnership()": "715018a6",
			"set(uint256,uint256,bool,uint256)": "f28fadb8",
			"setAsteriskBurnRate(uint256,uint256)": "aab825cb",
			"setRewardCountPerBlock(uint256,uint256)": "11bc12a7",
			"startBlock()": "48cd4cb1",
			"totalAllocPoint()": "17caf6f1",
			"transferOwnership(address)": "f2fde38b",
			"updateMultiplier(uint256)": "5ffe6146",
			"updatePool(uint256)": "51eb05a6",
			"userInfo(uint256,address)": "93f1a40b",
			"withdraw(uint256,uint256)": "441a3e70"
		}
	},
	"abi": [
		{
			"inputs": [
				{
					"internalType": "contract IERC20",
					"name": "_mooni",
					"type": "address"
				},
				{
					"internalType": "contract AsteriskToken",
					"name": "_asterisk",
					"type": "address"
				},
				{
					"internalType": "contract MooniGovernance",
					"name": "_gov",
					"type": "address"
				},
				{
					"internalType": "address",
					"name": "_devaddr",
					"type": "address"
				},
				{
					"internalType": "uint256",
					"name": "_mooniPerBlock",
					"type": "uint256"
				},
				{
					"internalType": "uint256",
					"name": "_asteriskPerBlock",
					"type": "uint256"
				},
				{
					"internalType": "uint256",
					"name": "_startBlock",
					"type": "uint256"
				}
			],
			"stateMutability": "nonpayable",
			"type": "constructor"
		},
		{
			"anonymous": false,
			"inputs": [
				{
					"indexed": true,
					"internalType": "address",
					"name": "user",
					"type": "address"
				},
				{
					"indexed": true,
					"internalType": "uint256",
					"name": "pid",
					"type": "uint256"
				},
				{
					"indexed": false,
					"internalType": "uint256",
					"name": "amount",
					"type": "uint256"
				}
			],
			"name": "Deposit",
			"type": "event"
		},
		{
			"anonymous": false,
			"inputs": [
				{
					"indexed": true,
					"internalType": "address",
					"name": "user",
					"type": "address"
				},
				{
					"indexed": true,
					"internalType": "uint256",
					"name": "pid",
					"type": "uint256"
				},
				{
					"indexed": false,
					"internalType": "uint256",
					"name": "amount",
					"type": "uint256"
				}
			],
			"name": "EmergencyWithdraw",
			"type": "event"
		},
		{
			"anonymous": false,
			"inputs": [
				{
					"indexed": true,
					"internalType": "address",
					"name": "previousOwner",
					"type": "address"
				},
				{
					"indexed": true,
					"internalType": "address",
					"name": "newOwner",
					"type": "address"
				}
			],
			"name": "OwnershipTransferred",
			"type": "event"
		},
		{
			"anonymous": false,
			"inputs": [
				{
					"indexed": true,
					"internalType": "address",
					"name": "user",
					"type": "address"
				},
				{
					"indexed": true,
					"internalType": "uint256",
					"name": "pid",
					"type": "uint256"
				},
				{
					"indexed": false,
					"internalType": "uint256",
					"name": "amount",
					"type": "uint256"
				}
			],
			"name": "Withdraw",
			"type": "event"
		},
		{
			"inputs": [],
			"name": "BONUS_MULTIPLIER",
			"outputs": [
				{
					"internalType": "uint256",
					"name": "",
					"type": "uint256"
				}
			],
			"stateMutability": "view",
			"type": "function"
		},
		{
			"inputs": [
				{
					"internalType": "uint256",
					"name": "_allocPoint",
					"type": "uint256"
				},
				{
					"internalType": "contract IERC20",
					"name": "_lpToken",
					"type": "address"
				},
				{
					"internalType": "bool",
					"name": "_withUpdate",
					"type": "bool"
				},
				{
					"internalType": "bool",
					"name": "_isMooniBnb",
					"type": "bool"
				},
				{
					"internalType": "uint256",
					"name": "_lpRewardWeight",
					"type": "uint256"
				}
			],
			"name": "add",
			"outputs": [],
			"stateMutability": "nonpayable",
			"type": "function"
		},
		{
			"inputs": [],
			"name": "asterisk",
			"outputs": [
				{
					"internalType": "contract AsteriskToken",
					"name": "",
					"type": "address"
				}
			],
			"stateMutability": "view",
			"type": "function"
		},
		{
			"inputs": [],
			"name": "asteriskPerBlock",
			"outputs": [
				{
					"internalType": "uint256",
					"name": "",
					"type": "uint256"
				}
			],
			"stateMutability": "view",
			"type": "function"
		},
		{
			"inputs": [
				{
					"internalType": "uint256",
					"name": "_pid",
					"type": "uint256"
				},
				{
					"internalType": "uint256",
					"name": "_amount",
					"type": "uint256"
				}
			],
			"name": "deposit",
			"outputs": [],
			"stateMutability": "nonpayable",
			"type": "function"
		},
		{
			"inputs": [
				{
					"internalType": "address",
					"name": "_devaddr",
					"type": "address"
				}
			],
			"name": "dev",
			"outputs": [],
			"stateMutability": "nonpayable",
			"type": "function"
		},
		{
			"inputs": [],
			"name": "devaddr",
			"outputs": [
				{
					"internalType": "address",
					"name": "",
					"type": "address"
				}
			],
			"stateMutability": "view",
			"type": "function"
		},
		{
			"inputs": [
				{
					"internalType": "uint256",
					"name": "_pid",
					"type": "uint256"
				}
			],
			"name": "emergencyWithdraw",
			"outputs": [],
			"stateMutability": "nonpayable",
			"type": "function"
		},
		{
			"inputs": [
				{
					"internalType": "uint256",
					"name": "_amount",
					"type": "uint256"
				}
			],
			"name": "enterStaking",
			"outputs": [],
			"stateMutability": "nonpayable",
			"type": "function"
		},
		{
			"inputs": [
				{
					"internalType": "uint256",
					"name": "_from",
					"type": "uint256"
				},
				{
					"internalType": "uint256",
					"name": "_to",
					"type": "uint256"
				}
			],
			"name": "getCalculatedMultiplier",
			"outputs": [
				{
					"internalType": "uint256",
					"name": "",
					"type": "uint256"
				}
			],
			"stateMutability": "view",
			"type": "function"
		},
		{
			"inputs": [
				{
					"internalType": "uint256",
					"name": "_from",
					"type": "uint256"
				},
				{
					"internalType": "uint256",
					"name": "_to",
					"type": "uint256"
				}
			],
			"name": "getMultiplier",
			"outputs": [
				{
					"internalType": "uint256",
					"name": "",
					"type": "uint256"
				}
			],
			"stateMutability": "view",
			"type": "function"
		},
		{
			"inputs": [],
			"name": "gov",
			"outputs": [
				{
					"internalType": "contract MooniGovernance",
					"name": "",
					"type": "address"
				}
			],
			"stateMutability": "view",
			"type": "function"
		},
		{
			"inputs": [],
			"name": "isMooniRewardPossible",
			"outputs": [
				{
					"internalType": "bool",
					"name": "",
					"type": "bool"
				}
			],
			"stateMutability": "view",
			"type": "function"
		},
		{
			"inputs": [
				{
					"internalType": "uint256",
					"name": "_amount",
					"type": "uint256"
				}
			],
			"name": "leaveStaking",
			"outputs": [],
			"stateMutability": "nonpayable",
			"type": "function"
		},
		{
			"inputs": [],
			"name": "massUpdatePools",
			"outputs": [],
			"stateMutability": "nonpayable",
			"type": "function"
		},
		{
			"inputs": [],
			"name": "mooni",
			"outputs": [
				{
					"internalType": "contract IERC20",
					"name": "",
					"type": "address"
				}
			],
			"stateMutability": "view",
			"type": "function"
		},
		{
			"inputs": [],
			"name": "mooniPerBlock",
			"outputs": [
				{
					"internalType": "uint256",
					"name": "",
					"type": "uint256"
				}
			],
			"stateMutability": "view",
			"type": "function"
		},
		{
			"inputs": [],
			"name": "owner",
			"outputs": [
				{
					"internalType": "address",
					"name": "",
					"type": "address"
				}
			],
			"stateMutability": "view",
			"type": "function"
		},
		{
			"inputs": [
				{
					"internalType": "uint256",
					"name": "_pid",
					"type": "uint256"
				},
				{
					"internalType": "address",
					"name": "_user",
					"type": "address"
				}
			],
			"name": "pending",
			"outputs": [
				{
					"internalType": "uint256",
					"name": "",
					"type": "uint256"
				}
			],
			"stateMutability": "view",
			"type": "function"
		},
		{
			"inputs": [
				{
					"internalType": "uint256",
					"name": "_pid",
					"type": "uint256"
				},
				{
					"internalType": "address",
					"name": "_user",
					"type": "address"
				}
			],
			"name": "pendingMooni",
			"outputs": [
				{
					"internalType": "uint256",
					"name": "",
					"type": "uint256"
				}
			],
			"stateMutability": "view",
			"type": "function"
		},
		{
			"inputs": [
				{
					"internalType": "uint256",
					"name": "",
					"type": "uint256"
				}
			],
			"name": "poolInfo",
			"outputs": [
				{
					"internalType": "contract IERC20",
					"name": "lpToken",
					"type": "address"
				},
				{
					"internalType": "uint256",
					"name": "allocPoint",
					"type": "uint256"
				},
				{
					"internalType": "uint256",
					"name": "lastRewardBlock",
					"type": "uint256"
				},
				{
					"internalType": "uint256",
					"name": "accTokenPerShare",
					"type": "uint256"
				},
				{
					"internalType": "uint256",
					"name": "lpRewardWeight",
					"type": "uint256"
				},
				{
					"internalType": "uint256",
					"name": "accumulatedMooni",
					"type": "uint256"
				},
				{
					"internalType": "bool",
					"name": "isMooniBnb",
					"type": "bool"
				}
			],
			"stateMutability": "view",
			"type": "function"
		},
		{
			"inputs": [],
			"name": "poolLength",
			"outputs": [
				{
					"internalType": "uint256",
					"name": "",
					"type": "uint256"
				}
			],
			"stateMutability": "view",
			"type": "function"
		},
		{
			"inputs": [],
			"name": "renounceOwnership",
			"outputs": [],
			"stateMutability": "nonpayable",
			"type": "function"
		},
		{
			"inputs": [
				{
					"internalType": "uint256",
					"name": "_pid",
					"type": "uint256"
				},
				{
					"internalType": "uint256",
					"name": "_allocPoint",
					"type": "uint256"
				},
				{
					"internalType": "bool",
					"name": "_withUpdate",
					"type": "bool"
				},
				{
					"internalType": "uint256",
					"name": "_lpRewardWeight",
					"type": "uint256"
				}
			],
			"name": "set",
			"outputs": [],
			"stateMutability": "nonpayable",
			"type": "function"
		},
		{
			"inputs": [
				{
					"internalType": "uint256",
					"name": "_burnRateDay",
					"type": "uint256"
				},
				{
					"internalType": "uint256",
					"name": "_burnRateNight",
					"type": "uint256"
				}
			],
			"name": "setAsteriskBurnRate",
			"outputs": [],
			"stateMutability": "nonpayable",
			"type": "function"
		},
		{
			"inputs": [
				{
					"internalType": "uint256",
					"name": "_mooniPerBlock",
					"type": "uint256"
				},
				{
					"internalType": "uint256",
					"name": "_asteriskPerBlock",
					"type": "uint256"
				}
			],
			"name": "setRewardCountPerBlock",
			"outputs": [],
			"stateMutability": "nonpayable",
			"type": "function"
		},
		{
			"inputs": [],
			"name": "startBlock",
			"outputs": [
				{
					"internalType": "uint256",
					"name": "",
					"type": "uint256"
				}
			],
			"stateMutability": "view",
			"type": "function"
		},
		{
			"inputs": [],
			"name": "totalAllocPoint",
			"outputs": [
				{
					"internalType": "uint256",
					"name": "",
					"type": "uint256"
				}
			],
			"stateMutability": "view",
			"type": "function"
		},
		{
			"inputs": [
				{
					"internalType": "address",
					"name": "newOwner",
					"type": "address"
				}
			],
			"name": "transferOwnership",
			"outputs": [],
			"stateMutability": "nonpayable",
			"type": "function"
		},
		{
			"inputs": [
				{
					"internalType": "uint256",
					"name": "multiplierNumber",
					"type": "uint256"
				}
			],
			"name": "updateMultiplier",
			"outputs": [],
			"stateMutability": "nonpayable",
			"type": "function"
		},
		{
			"inputs": [
				{
					"internalType": "uint256",
					"name": "_pid",
					"type": "uint256"
				}
			],
			"name": "updatePool",
			"outputs": [],
			"stateMutability": "nonpayable",
			"type": "function"
		},
		{
			"inputs": [
				{
					"internalType": "uint256",
					"name": "",
					"type": "uint256"
				},
				{
					"internalType": "address",
					"name": "",
					"type": "address"
				}
			],
			"name": "userInfo",
			"outputs": [
				{
					"internalType": "uint256",
					"name": "amount",
					"type": "uint256"
				},
				{
					"internalType": "uint256",
					"name": "rewardDebt",
					"type": "uint256"
				},
				{
					"internalType": "uint256",
					"name": "rewardDebtForMooni",
					"type": "uint256"
				}
			],
			"stateMutability": "view",
			"type": "function"
		},
		{
			"inputs": [
				{
					"internalType": "uint256",
					"name": "_pid",
					"type": "uint256"
				},
				{
					"internalType": "uint256",
					"name": "_amount",
					"type": "uint256"
				}
			],
			"name": "withdraw",
			"outputs": [],
			"stateMutability": "nonpayable",
			"type": "function"
		}
	]
}